:020000040801F1
:10000000702D00209D0101085D990108A58A010855
:1000100059990108AD0B010805E201080000000034
:1000200000000000000000000000000045B30108CF
:10003000710F010800000000759D010859B6010804
:10004000B7010108B7010108B7010108AD9E010819
:10005000B7010108B7010108B7010108B70101089C
:10006000B7010108B7010108B7010108B70101088C
:10007000B7010108B7010108B7010108B70101087C
:10008000B7010108B7010108B7010108B70101086C
:10009000B7010108B7010108B7010108B70101085C
:1000A000B7010108B7010108B7010108B70101084C
:1000B000B7010108B7010108B7010108B70101083C
:1000C000B7010108B7010108B7010108B70101082C
:1000D000B7010108F9BE010809BF0108B70101080D
:1000E000750F0108B7010108B7010108B701010840
:1000F000B7010108B7010108B7010108B7010108FC
:10010000B7010108B7010108B7010108B7010108EB
:10011000B7010108B701010869B70108B701010873
:10012000B7010108B7010108B7010108B7010108CB
:10013000B7010108B7010108B7010108B7010108BB
:10014000B7010108B7010108B7010108CD990108FD
:10015000B7010108B7010108B7010108B70101089B
:10016000B7010108B7010108B7010108B70101088B
:10017000B7010108DD990108B7010108000000007E
:10018000B7010108B7010108DFF80CD000F09EFBB1
:1001900000480047B13C0208702D00200648804707
:1001A00006480047FEE7FEE7FEE7FEE7FEE7FEE75C
:1001B000FEE7FEE7FEE7FEE755B701088901010803
:1001C0002DE9F05F0546002092469B46884606468C
:1001D000814640241BE0284641464746224600F01F
:1001E000DDFA53465A46C01A914110D311461846BB
:1001F000224600F0C4FA2D1A67EB01084F4622464A
:100200000120002100F0BBFA17EB00094E41201E2F
:10021000A4F10104DFDC484631462A464346BDE8E6
:10022000F09FD2B201E000F8012B491EFBD27047CB
:100230000022F6E710B513460A4604461946FFF7B2
:10024000F0FF204610BD421C10F8011B0029FBD115
:10025000801A704710B5044600E0401C0378002B5C
:10026000FBD100E0401C521E04D311F8013B037087
:10027000002BF7D100210170204610BD034611F874
:10028000012B00F8012B002AF9D1184670472DE9FF
:10029000FE4F804681EA0300C00F0C46009021F01B
:1002A000004123F00045B8EB0200A94105D24046C9
:1002B000214690461C460B46024623F00040104360
:1002C00047D0270DC7F30A00C3F30A510290401A22
:1002D000019040286BDAC3F3130040F4801B0098B0
:1002E000924620B10023D2EB030A63EB0B0B01987B
:1002F0005946C0F14002504600F041FA06460D460C
:1003000050465946019A00F059FA10EB0800614135
:10031000002487EA115284EAE7731A4340D0009A16
:1003200062B3019A012A4FEA075215DC001B61EB08
:1003300002014FF0004202EA0752CDE90042001CE0
:1003400041F5801132462B4600F059FA03B0BDE862
:10035000F08F40462146F9E7001B61EB0201001CCB
:1003600041F5801300185B412018A2F5001747EBF8
:10037000030140EAD570B6196D4111E06D084FEAEE
:10038000360645EAC0754FEA0752001B61EB0201D1
:10039000001C41F5801149084FEA30000019514115
:1003A00032462B4603B0BDE8F04F00F019BA009872
:1003B000012240000023D0EB020263EBE0730098BF
:1003C00021464FEAE074B8EB000061EB0401E9E775
:1003D00083F000435BE781F0004158E72DE9FE4FD1
:1003E00081EA030404F0004421F0004100944FF03E
:1003F000000B23F0004350EA01045ED052EA0304EC
:100400005BD0C3F30A54C1F30A552C44A4F2F3346D
:100410000194A0FB0254C1F3130141F48011C3F312
:10042000130343F4801301FB024400FB034E840AD0
:10043000970A44EA815447EA8357A4FB0768029568
:100440008D0A05FB07854FEA932C04FB0C54270506
:10045000029D4FEA065847EA1637B5EB08056EEBE2
:10046000070C870E920E47EA811742EA8312A7FB18
:100470000201B6EB0B0164EB00042B0D43EA0C33D5
:100480005E1844EB1C50DA465146E7FB0201C5F307
:1004900013044FEA0B3343EA14534FEA0432019C2E
:1004A00043EA0603A4F10C040294009CCDE900B4D5
:1004B00000F0A5F903B0BDE8F08F00200146F9E790
:1004C0002DE9F04D81EA030404F0004B21F00045D2
:1004D00014464FF0000A23F0004150EA050220D0F4
:1004E00054EA01021DD0C5F30A570246C5F31303AF
:1004F000C1F31300C1F30A5640F4801543F480138E
:10050000A7EB0608101BD64608F2FD3873EB050072
:1005100002D308F1010801E092185B41B8F1000F25
:1005200003DA00200146BDE8F08D00204FF4801171
:10053000064684460EE0171B73EB050705D3121B16
:1005400063EB050306434CEA010C49084FEA30000F
:1005500092185B4150EA0107EDD152EA030012D034
:1005600082EA040083EA0501084305D0101BAB4171
:1005700006D20122002306E000224FF0004302E0F1
:100580006FF0010253101AEB06004CEB085110EB10
:100590000A0041EB0B01BDE8F04D00F021B930B588
:1005A000041E71F1000404DB4FF00044404264EB90
:1005B0000101141E73F1000405DB1C464FF00043DB
:1005C000524263EB0403801A994101D3012030BDEC
:1005D000002030BD30B5041E71F1000404DB4FF083
:1005E0000044404264EB0101141E73F1000405DB7A
:1005F0001C464FF00043524263EB0403101A8B4138
:1006000001D2012030BD002030BD30B5041E71F193
:10061000000404DB4FF00044404264EB0101141E6F
:1006200073F1000405DB1C464FF00043524263EBBC
:100630000403101A8B4101D3012030BD002030BDCE
:1006400030B5041E71F1000404DB4FF00044404259
:1006500064EB0101141E73F1000405DB1C464FF02E
:100660000043524263EB0403801A994101D20120F6
:1006700030BD002030BD0EB5C10F80EAE0700844E7
:10068000CA07002140F233438DE80E000A460B46AC
:1006900000F0B5F803B000BD0EB540F23341029151
:1006A0000021CDE900110A460B4600F0A8F803B07E
:1006B00000BD70B5C1F30A5201F000450024C1F33A
:1006C000130140F2FF3341F480119A4201DA002015
:1006D00070BD40F233439A42A2F2334203DC5242ED
:1006E00000F05CF800E090402C43F1D0404270BD37
:1006F000C1F30A5210B5C1F3130140F2FF3341F4C4
:1007000080119A4201DA002010BD40F233439A4230
:10071000A2F2334203DC524200F040F810BD904098
:1007200010BDC1F30A52C1F3130140F2FF3341F48B
:1007300080119A4202DA00200146704740F23343AA
:100740009A42A2F2334202DC524200F027B800F093
:1007500016B830B50B46014600202022012409E0DE
:1007600021FA02F59D4205D303FA02F5491B04FA6A
:1007700002F52844151EA2F10102F1DC30BD202A49
:1007800004DB203A00FA02F1002070479140C2F1E8
:10079000200320FA03F3194390407047202A04DB1A
:1007A000203A21FA02F00021704721FA02F3D040EA
:1007B000C2F120029140084319467047202A06DB07
:1007C000CB17203A41FA02F043EAE07306E041FA1F
:1007D00002F3D040C2F1200291400843194670470D
:1007E00010B5141E73F1000408DA401C41F1000139
:1007F00092185B411A4301D120F0010010BD2DE990
:10080000F04D92469B4611B1B1FA81F202E0B0FA86
:1008100080F220329046FFF7B2FF04460F4640EACE
:100820000A0041EA0B0153465A46084313D01146C9
:1008300053EA010019D0C8F140025046FFF7AEFF5D
:1008400005460E46504659464246FFF798FF084374
:1008500005D0012004E020463946BDE8F08D002097
:10086000054346EAE0762C4337430A986305E40AD9
:10087000A0EB08000022FD0A44EA47540A3002D5E2
:1008800000200146E9E7010510196941DDE9084545
:1008900000196941BDE8F04DA2E7000030B5041E23
:1008A00071F1000404DB4FF00044404264EB0101AD
:1008B000141E73F1000405DB1C464FF00043524246
:1008C00063EB0403994208BF904230BD1CB5094850
:1008D0000090094801900546009C06E0E06840F061
:1008E000010394E8070098471034AC42F6D3FFF7B1
:1008F0004FFC00004C8302086C83020882B0019018
:1009000042F20030C4F2010000900099486820F4DF
:100910004030486001984268009948681043486038
:1009200001980168486820F4807048600198016867
:100930000269486840EA02204860019801684868F6
:1009400020F0407048600198016882684868104350
:10095000486001980168886820F400608860019808
:100960000168C2688868104388600198806A012124
:10097000C0F60071884219D0FFE7019801688868C5
:1009800020F07060886001980168826A886810436E
:10099000886001980168886820F04050886001985C
:1009A0000168C26A8868104388600CE00198016899
:1009B000886820F07060886001980168886820F07D
:1009C00040508860FFE701980168886820F00200C5
:1009D00088600198027E0168886840EA4200886069
:1009E000019890F82000C8B1FFE7019801684868B5
:1009F00040F40060486001980168486820F4604055
:100A0000486001980168426A4EF20000CFF6FF701C
:100A100000EB423248681043486006E001980168E4
:100A2000486820F400604860FFE701980168C86AE0
:100A300020F47000C86201980168C2690020CFF6F6
:100A4000F07000EB0252C86A1043C8620198016856
:100A5000886820F400708860019890F83020016860
:100A6000886840EA4220886001980168886820F41C
:100A700080608860019801684269886840EA822045
:100A8000886002B07047000080B582B00190019983
:100A900041F25020C2F2000006F00CF802B080BD16
:100AA00080B541F25020C2F2000006F029F8043867
:100AB00018BF012080BD000080B582B000208DF8F5
:100AC000060000F02BF8012804D0FFE701208DF884
:100AD00007001FE041F25020C2F2000006F02AF8A1
:100AE0008DF806009DF8060078B9FFE741F2502026
:100AF000C2F200004FF4006105F0F8FD20B1FFE7FD
:100B000001208DF80600FFE7FFE79DF806008DF84D
:100B10000700FFE79DF8070002B080BD81B001200B
:100B20008DF803009DF8030001B0704780B586B0D2
:100B3000059004910392029300208DF80700059917
:100B4000049A039B0298EC46CCF8000041F2502036
:100B5000C2F2000006F01AF920B1FFE701208DF87B
:100B60000700FFE79DF8070006B080BD80B586B09E
:100B7000059004910392029300208DF807000599D7
:100B8000049A039B0298EC46CCF8000041F25020F6
:100B9000C2F2000006F004FB20B1FFE701208DF84F
:100BA0000700FFE79DF8070006B080BDFFE7FEE7FE
:100BB00080B58AB040F2D050C2F2000090ED001B28
:100BC00047F66060C0F6020090ED000B51EC110B8F
:100BD00053EC102BFFF7E3FC68B9FFE747F66060C2
:100BE000C0F6020090ED000B40F2D050C2F20000BF
:100BF00080ED000BFFE740F2D050C2F2000090ED14
:100C0000001B47F66060C0F6020090ED380B51EC17
:100C1000110B53EC102BFFF7F8FC68B9FFE747F610
:100C20006060C0F6020090ED380B40F2D050C2F286
:100C3000000080ED000BFFE740F2D851C2F2000146
:100C400000200870FFE740F2D850C2F200000078A0
:100C50001C285ADCFFE740F2D050C2F2000090EDB1
:100C6000000B8DED080B40F2D850C2F20000017865
:100C700047F66060C0F6020000EBC10090ED000B8B
:100C800051EC100B9FED7E0B53EC102BFFF7FFFA8E
:100C90009DED080B41EC110B53EC112B51EC100B9B
:100CA000FFF7CEFC40BBFFE740F2D050C2F200009D
:100CB00090ED000B40F2D850C2F20000017847F6E8
:100CC0006060C0F6020000EBC10090ED021B53EC27
:100CD000112B51EC100BFFF77DFC68B9FFE740F2D8
:100CE000D851C2F20001087840F2D952C2F2000293
:100CF00010701E200870FFE7FFE740F2D851C2F2E3
:100D000000010878013008709DE740F2D950C2F226
:100D100000000590027847F64871C0F60201049180
:100D200001EB8200406851F82210401AFFF7A3FC43
:100D30000246059800920A46009942EC101B40F2C8
:100D4000C051C2F20001039181ED000B017847F61A
:100D50006060C0F60200019000EBC10090ED001B46
:100D600090ED020B51EC110B53EC102BFFF730FB05
:100D70000A46039942EC100B40F2C850C2F2000040
:100D8000029080ED000B91ED001B90ED000B51ECFB
:100D9000110B53EC102BFFF793FB039A03460198BA
:100DA0008C4605994CEC103B82ED000B097800EB6A
:100DB000C10090ED001B40F2D050C2F2000090ED57
:100DC000000B51EC110B53EC102BFFF701FB02460B
:100DD00002980B46039943EC102B80ED000B91ED2C
:100DE000001B90ED000B51EC110B53EC102BFFF797
:100DF000F5FA41EC100B51EC100BFFF75AFCFFF722
:100E00003AFC024604980B46059943EC102B40F23D
:100E1000B052C2F20002069282ED000B097850F83F
:100E20002100FFF728FC0246069807920A46079918
:100E300042EC111B90ED000B51EC110B53EC102BFD
:100E4000FFF725FA41EC100B40F2B850C2F2000057
:100E500080ED000B90ED000B51EC100BFFF729FC1F
:100E600046F26761C6F2666150FB01F1881000EB43
:100E7000D170FFF700FC41EC100B0AB080BD00BF41
:100E8000000000000000F03F80B582B00020ADF807
:100E90000200FFE7BDF8020040F23231884227DC51
:100EA000FFE7BDF802000AF06BFA013050B9FFE726
:100EB00041F2B431C2F2000100200870BDF8020016
:100EC000019018E0BDF8020040F23231884207D1AB
:100ED000FFE741F2B431C2F2000101200870FFE7E0
:100EE000FFE7FFE7BDF802000130ADF80200D1E7EF
:100EF00001200190FFE7019802B080BD80B582B06B
:100F00000020ADF80200FFE7BDF8020040F23231E8
:100F1000884227DCFFE7BDF802000AF075FA0130CD
:100F200050B9FFE741F2B531C2F20001002008706C
:100F3000BDF80200019018E0BDF8020040F2323125
:100F4000884207D1FFE741F2B531C2F2000101202A
:100F50000870FFE7FFE7FFE7BDF802000130ADF8DA
:100F60000200D1E701200190FFE7019802B080BDA7
:100F70007047000080B54FF4006002F0F1FA80BDC8
:100F800080B584B08DF80F00002002909DF80F000E
:100F9000022805D1FFE70020C0F60C00029004E013
:100FA0000020C0F60A000290FFE702F095F90298CF
:100FB00000F090FA40F2EC01C2F2000101910860E9
:100FC000029800F087FA019A1168401A013040F245
:100FD0002C31C2F20001086040F27000C2F2000041
:100FE0000023036002230361126882600968C16004
:100FF00040F2A051C2F2000102F070F808B1FFE720
:10100000FFE743F60041C4F20201086820F4806063
:101010000860086820F400700860FFE743F60041AC
:10102000C4F20201086840F480500860086820F4A7
:1010300080500860FFE7FFE743F60041C4F2020179
:10104000086840F400600860086820F400600860E8
:10105000FFE743F60041C4F20201086840F4007063
:101060000860086840F48060086002F0BFF804B0CF
:1010700080BD000072B6FFE7FEE7000080B582B0D9
:101080000190009101980099002200F003F802B04D
:1010900080BD000084B0039002918DF807200120EC
:1010A0008DF8060000208DF8050040F2AC70C2F209
:1010B0000000407A002827DCFFE740F2AC73C2F260
:1010C00000030093597A0020585403995A7A03EB8D
:1010D000820251609DF807105A7A1A441172597AA7
:1010E0004A1C5A728DF805109DF805103031029A8D
:1010F0001170029A3A215170029A2F21917002992F
:10110000C8708DF80600FFE79DF8060004B0704730
:1011100083B002908DF80710002000909DF8070022
:1011200018B9FFE70020009017E09DF8070001289C
:1011300004D1FFE74FF4807000900DE09DF80700A8
:10114000022804D1FFE74FF40070009003E04FF451
:1011500040700090FFE7FFE7FFE743F61041C4F25D
:101160000201086820F440700860009A0868104383
:101170000860086820F0F8000860029A086840EAF1
:10118000C20040F002000860086840F48030086047
:1011900003B0704743F60040C4F2020000688005C7
:1011A00000281FD5FFE743F60041C4F2020108689A
:1011B00020F400700860FFE743F60041C4F202012A
:1011C000086840F400600860086820F40060086067
:1011D000FFE743F60041C4F20201086840F40070E2
:1011E0000860FFE743F60040C4F2020000684005D3
:1011F00000281FD5FFE743F60041C4F2020108684A
:1012000020F480600860FFE743F60041C4F2020169
:10121000086840F480500860086820F48050086036
:10122000FFE743F60041C4F20201086840F4806021
:101230000860FFE77047000082B08DF8070000915A
:1012400043F61041C4F20201086820F440700860BF
:10125000086840F0040008609DF80720086840EA2C
:10126000022040F48030086002B0704782B00190E4
:101270008DF8031043F61041C4F20201086820F40F
:101280004070086008680860086840F00100086065
:101290009DF803000199087002B0704784B0039074
:1012A0000193009243F61041C4F20201086820F451
:1012B00040700860086840F440700860086840F0BA
:1012C00001000860009803990860BFF36F8F0198D0
:1012D0000399486004B0704782B00190ADF80210E5
:1012E00043F61041C4F20201086820F4407008601F
:1012F000086840F480700860086840F001000860E9
:10130000BDF802000199088002B0704782B00190D8
:10131000009143F61041C4F20201086820F44070C5
:101320000860086840F400700860086840F0010038
:10133000086000980199086002B0704743F60C40BD
:10134000C4F202000068C00600280FD5FFE741F292
:10135000B831C2F20001C86940F01000C86143F61C
:101360000C41C4F2020110200860FFE743F60C4074
:10137000C4F202000068800600280FD5FFE741F2A2
:10138000B831C2F20001C86940F00800C86143F6F4
:101390000C41C4F2020120200860FFE743F60C4034
:1013A000C4F202000068400600280FD5FFE741F2B2
:1013B000B831C2F20001C86940F00400C86143F6C8
:1013C0000C41C4F2020140200860FFE743F60C40E4
:1013D000C4F202000068000600280FD5FFE741F2C2
:1013E000B831C2F20001C86940F00200C86143F69A
:1013F0000C41C4F2020180200860FFE743F60C4074
:10140000C4F202000068800700280FD5FFE741F210
:10141000B831C2F20001C86940F02000C86143F64B
:101420000C41C4F2020102200860FFE7704700008F
:1014300080B584B002900020019041F2B831C2F230
:101440000001C86102F0B4FA0190FFE743F60C40D6
:10145000C4F202000068C003002815D5FFE7029817
:10146000013080B1FFE7029840B1FFE702F0A0FA37
:101470000199401A0299884204D9FFE703208DF8A8
:101480000F0023E0FFE7E1E743F60C40C4F202005F
:101490000068C00738B1FFE743F60C41C4F202010F
:1014A00001200860FFE743F60C40C4F20200006828
:1014B00010F0F20F06D0FFE7FFF740FF01208DF894
:1014C0000F0003E000208DF80F00FFE79DF80F00EC
:1014D00004B080BD82B0019000200090019843F6D6
:1014E000FF71C0F60001884208D8FFE70198B0F10B
:1014F000006F03D3FFE700200090C3E0019847F698
:10150000FF71C0F6000188420BD8FFE7019844F252
:101510000001C0F60001884203D3FFE701200090DC
:10152000AFE001984BF6FF71C0F6000188420BD87E
:10153000FFE7019848F20001C0F60001884203D39A
:10154000FFE7022000909BE001984FF6FF71C0F684
:10155000000188420BD8FFE701984CF20001C0F669
:101560000001884203D3FFE70320009087E0019841
:101570004FF6FF71C0F6010188420AD8FFE70198D3
:101580000021C0F60101884203D3FFE70420009048
:1015900074E001984FF6FF71C0F6030188420AD843
:1015A000FFE701980021C0F60201884203D3FFE75C
:1015B0000520009061E001984FF6FF71C0F605012B
:1015C00088420AD8FFE701980021C0F6040188424A
:1015D00003D3FFE7062000904EE001984FF6FF711D
:1015E000C0F6070188420AD8FFE701980021C0F63B
:1015F0000601884203D3FFE7072000903BE00198F3
:101600004FF6FF71C0F6090188420AD8FFE701983A
:101610000021C0F60801884203D3FFE708200090AC
:1016200028E001984FF6FF71C0F60B0188420AD8F6
:10163000FFE701980021C0F60A01884203D3FFE7C3
:101640000920009015E001984FF6FF71C0F60D01DA
:1016500088420AD8FFE701980021C0F60C018842B1
:1016600003D3FFE70A20009002E00B200090FFE781
:10167000FFE7FFE7FFE7FFE7FFE7FFE7FFE7FFE73A
:10168000FFE7FFE7009802B070470000000000008D
:1016900080B5DCB041F23020C2F2000041F21441CA
:1016A000C2F20001002204F0B1FD002840F0628681
:1016B000FFE741F2FC40C2F200004D9048F2483191
:1016C000C0F60201FEF7DAFD41F23020C2F200005E
:1016D00041F20F41C2F200014591002204F05AFD8F
:1016E00045984378C27840F26400C2F2000041900D
:1016F00048F2F721C0F6020115F0D8FE419940F2F8
:101700009400C2F200003E90FEF7B8FD4598437881
:10171000C27848F2B121C0F602010DF265103D9089
:1017200015F0C4FE3D993E980A224392FEF792FDC1
:10173000419940F2A600C2F200004090FEF79EFDE3
:1017400045984378C27848F2C021C0F602010DF5F1
:10175000AD703F9015F0AAFE3F99439A4098FEF76E
:1017600079FD419940F2B800C2F200004490FEF7C2
:1017700085FD48F2A621C0F602010DF24F104290FD
:1017800015F094FE4299439A4498FEF763FD4599FB
:101790004B788878CA786946086041F22860C2F2BE
:1017A0000000469048F2D521C0F6020115F07EFEF9
:1017B00046994D9808224792FEF74CFD4D9848F205
:1017C000A311C0F602014B9101224C92FEF742FD9B
:1017D000469841F21441C2F200010A784B788978A8
:1017E000EC46CCF8001048F2E121C0F6020115F0F9
:1017F0005DFE4699479A4D98FEF72CFD4B994C9A01
:101800004D98FEF727FD40F2F450C2F200004E90D2
:101810004088FEF741FF41EC100B41F61800C2F280
:101820000000489080ED000B90ED000B9FEDB21B87
:1018300053EC112B51EC100BFEF742FE0246489878
:1018400049920A46499942EC101B80ED000B90ED3D
:10185000000B53EC102B41F2E840C2F200004A901A
:1018600048F20331C0F6020115F020FE4A994D9866
:101870000622FEF7EFFC4B994C9A4D98FEF7EAFCD6
:101880004E98018841F2AC32C2F200021160008829
:10189000B0F5004F0ADBFFE741F2AC31C2F20001C4
:1018A00008684FF6FF72801A0860FFE741F2AC301B
:1018B000C2F200000068FEF7DEFE41EC100B41F6BC
:1018C0001800C2F20000339080ED000B90ED000B89
:1018D0009FED8B1B53EC112B51EC100BFEF7F0FD21
:1018E0000246339834920A46349942EC101B80ED3C
:1018F000000B90ED000B53EC102B41F2E840C2F2CC
:101900000000389048F20331C0F6020115F0CEFD18
:10191000389941F2FC40C2F200003C900622FEF7EA
:1019200099FC3C9848F2A311C0F602013A910122B9
:101930003B92FEF78FFC389840F2F451C2F200015E
:1019400036910A8948F2D221C0F60201379115F08A
:10195000ADFD38993C9805223592FEF77BFC3A990B
:101960003B9A3C98FEF776FC369A3799389852891C
:1019700015F09CFD359A38993C98FEF76BFC3A9926
:101980003B9A3C98FEF766FC369A379938989288CD
:1019900015F08CFD38993C9803223992FEF75AFCD9
:1019A0003A993B9A3C98FEF755FC369A3799389805
:1019B000D28815F07BFD3899399A3C98FEF74AFC9D
:1019C0003A993B9A3C98FEF745FC00205290FFE77D
:1019D0005298032829DCFFE7529940F2F450C2F2F2
:1019E000000000EB4100C28B41F2E840C2F200006F
:1019F000319048F2D221C0F6020115F057FD31991D
:101A000041F2FC40C2F2000032900422FEF722FCB8
:101A1000329848F2A311C0F602010122FEF71AFC27
:101A2000FFE7529801305290D2E700205190FFE733
:101A30005198012870DCFFE7519940F2F450C2F24E
:101A4000000000EB4100C08FFEF726FE41EC100BBA
:101A500041F61800C2F200002D9080ED000B90EDD1
:101A6000000B9FED291B53EC112B51EC100BFEF7D3
:101A70000EFC02462D982C920A462C9942EC101B23
:101A800080ED000B90ED000B9FED211B53EC112B13
:101A900051EC100BFEF714FD02462D982E920A46CB
:101AA0002E9942EC101B80ED000B90ED000B53ECD7
:101AB000102B41F2E840C2F200002F9048F20331AF
:101AC000C0F6020115F0F2FC2F9941F2FC40C2F27F
:101AD000000030900522FEF7BDFB309848F2A311BC
:101AE000C0F602010122FEF7B5FBFFE75198013075
:101AF00051909DE700BF00BF00000000000059406A
:101B00000000000000408F40000000000056A5C00B
:101B1000000000000000244040F2F450C2F2000037
:101B20002B90428A41F2E840C2F20000279048F22E
:101B3000CF21C0F60201249115F0B8FC279941F29B
:101B4000FC40C2F200002A9004222592FEF782FB9C
:101B50002A9848F2A311C0F6020128910122299285
:101B6000FEF778FB24992B9A2798928A15F09EFC11
:101B7000259A27992A98FEF76DFB2899299A2A9881
:101B8000FEF768FB24992B9A2798D28A15F08EFCD1
:101B9000259A27992A98FEF75DFB2899299A2A9871
:101BA000FEF758FB24992B9A2798128A15F07EFC91
:101BB000259A27992A98FEF74DFB2899299A2A9861
:101BC000FEF748FB2B98B0F87C00FEF765FD41EC72
:101BD000100B41F61800C2F20000269080ED000BB9
:101BE00090ED000B1FED3C1B53EC112B51EC100B37
:101BF000FEF766FC024627980B46269943EC102B0D
:101C000081ED000B91ED000B53EC102B48F20331EA
:101C1000C0F6020115F04AFC27992A980622FEF721
:101C200019FB2899299A2A98FEF714FB2B98B0F8EB
:101C3000781041F2AC32C2F2000211600088B0F5B7
:101C4000004F0ADBFFE741F2AC31C2F20001086845
:101C50004FF6FF72801A0860FFE741F2AC30C2F223
:101C600000000068FEF707FD41EC100B41F618007C
:101C7000C2F200001A9080ED000B90ED000B1FEDFA
:101C8000601B53EC112B51EC100BFEF719FC0246B4
:101C90001A981B920A461B9942EC101B80ED000B10
:101CA00090ED000B53EC102B41F2E840C2F2000023
:101CB0001F9048F20331C0F6020115F0F7FB1F999F
:101CC00041F2FC40C2F2000023900622FEF7C2FA65
:101CD000239848F2A311C0F6020121910122229219
:101CE000FEF7B8FA1F9840F2F451C2F200011D91BC
:101CF000B1F8882048F2D221C0F602011E9115F0F9
:101D0000D5FB1F99239805221C92FEF7A3FA21996F
:101D1000229A2398FEF79EFA1D9A1E991F98B2F8F0
:101D20008C2015F0C3FB1C9A1F992398FEF792FA9A
:101D30002199229A2398FEF78DFA1D9A1E991F98D1
:101D4000B2F8802015F0B2FB1F992398032220924D
:101D5000FEF780FA2199229A2398FEF77BFA1D9AC2
:101D60001E991F98B2F8842015F0A0FB1F99209AA5
:101D70002398FEF76FFA2199229A2398FEF76AFAC0
:101D800000205090FFE7509803282ADCFFE7509985
:101D900040F2F450C2F2000000EB4100B0F8A8207D
:101DA00041F2E840C2F20000189048F2D221C0F699
:101DB000020115F07BFB189941F2FC40C2F20000D1
:101DC00019900422FEF746FA199848F2A311C0F6BA
:101DD00002010122FEF73EFAFFE7509801305090D1
:101DE000D1E700204F90FFE74F9801286CDCFFE718
:101DF0004F9940F2F450C2F2000000EB4100B0F8FD
:101E0000B800FEF749FC41EC100B41F61800C2F295
:101E10000000149080ED000B90ED000B1FEDC61B31
:101E200053EC112B51EC100BFEF731FA02461498CB
:101E300013920A46139942EC101B80ED000B90EDB3
:101E4000000B1FEDCD1B53EC112B51EC100BFEF7CB
:101E500037FB0246149815920A46159942EC101B5E
:101E600080ED000B90ED000B53EC102B41F2E8409D
:101E7000C2F20000169048F20331C0F6020115F0DC
:101E800015FB169941F2FC40C2F2000017900522A2
:101E9000FEF7E0F9179848F2A311C0F602010122FB
:101EA000FEF7D8F9FFE74F9801304F909CE700BF4D
:101EB000000000000000F03F00000000000059405A
:101EC000000000000000244040F2F450C2F2000084
:101ED0000590B0F89C2041F2E840C2F200000E905C
:101EE00048F2CF21C0F60201069115F0DFFA0E99F3
:101EF00041F2FC40C2F20000129004220792FEF769
:101F0000A9F9129848F2A311C0F60201109101221A
:101F10001192FEF79FF9059A06990E98B2F8A02043
:101F200015F0C4FA079A0E991298FEF793F91099D2
:101F3000119A1298FEF78EF9059A06990E98B2F842
:101F4000A42015F0B3FA079A0E991298FEF782F9B9
:101F50001099119A1298FEF77DF9059A06990E9834
:101F6000B2F8982015F0A2FA079A0E991298FEF787
:101F700071F91099119A1298FEF76CF90E981FEDED
:101F8000340B53EC102B48F20331C0F602010D91D3
:101F900015F08CFA079A0E991298FEF75BF91099D2
:101FA000119A1298FEF756F941F24040C2F2000031
:101FB0000C9090ED100B51EC100B1FED410B53ECFE
:101FC000102B09930892FEF77BFA02460E980B46F7
:101FD0000D9943EC102B53EC102B15F067FA0E996A
:101FE000129805220F92FEF735F91099119A12985E
:101FF000FEF730F9089A099B0C9890ED0E0B51EC06
:10200000100BFEF75DFA02460E980B460D9943EC55
:10201000102B53EC102B15F049FA0E990F9A1298C9
:10202000FEF718F91099119A1298FEF713F9089A09
:10203000099B0C9890ED120B51EC100BFEF740FA37
:1020400002460E980B460D9943EC102B53EC102BC7
:1020500015F02CFA0E990F9A1298FEF7FBF81099CA
:10206000119A1298FEF7F6F8089A099B0C9890EDD1
:10207000160B51EC100BFEF723FA02460E980B4696
:102080000D9943EC102B53EC102B15F00FFA0E9911
:102090000F9A1298FEF7DEF81099119A1298FEF72F
:1020A000D9F8089A099B0C9890ED140B51EC100B81
:1020B000FEF706FA02460E980B460D9943EC102BDC
:1020C00053EC102B15F0F2F90E990F9A1298FEF7B7
:1020D000C1F81099119A1298FEF7BCF8089A099B5A
:1020E0000C9890ED180B51EC100BFEF7E9F9024635
:1020F0000E980B460D9943EC102B53EC102B15F05A
:10210000D5F90E990F9A1298FEF7A4F81099119A22
:102110001298FEF79FF8089A099B0C9890ED200BF7
:1021200051EC100BFEF7CCF902460E980B460D99B8
:1021300043EC102B53EC102B15F0B8F90E990F9AB5
:102140001298FEF787F81099119A1298FEF782F804
:10215000089A099B0C9890ED240B51EC100BFEF79C
:10216000AFF902460E980B460D9943EC102B53EC39
:10217000102B15F09BF90E990F9A1298FEF76AF83A
:102180001099119A1298FEF765F8089A099B0C9815
:1021900090ED1A0B51EC100BFEF792F902460E98D7
:1021A0000B460D9943EC102B53EC102B15F07EF9D8
:1021B0000E990F9A1298FEF74DF81099119A1298ED
:1021C000FEF748F8089A099B0C9890ED1C0B51EC0F
:1021D000100BFEF775F902460E980B460D9943EC6D
:1021E000102B53EC102B15F061F90E990F9A1298E1
:1021F000FEF730F81099119A1298FEF72BF80C9808
:1022000090ED000B51EC100B1FEDD30B53EC102B8A
:102210000B930A92FEF754F902460E980B460D995D
:1022200043EC102B53EC102B15F040F90E990F9A3C
:102230001298FEF70FF81099119A1298FEF70AF803
:102240000A9A0B9B0C9890ED020B51EC100BFEF7C9
:1022500037F902460E980B460D9943EC102B53ECC0
:10226000102B15F023F90E990F9A1298FDF7F2FF33
:102270001099119A1298FDF7EDFF0A9A0B9B0C9892
:1022800090ED040B51EC100BFEF71AF902460E9874
:102290000B460D9943EC102B53EC102B15F006F95F
:1022A0000E990F9A1298FDF7D5FF1099119A12986E
:1022B000FDF7D0FF0A9A0B9B0C9890ED060B51ECA2
:1022C000100BFEF7FDF802460E980B460D9943ECF5
:1022D000102B53EC102B15F0E9F80E990F9A129869
:1022E000FDF7B8FF1099119A1298FDF7B3FF0A9AFB
:1022F0000B9B0C9890ED080B51EC100BFEF7E0F8DF
:1023000002460E980B460D9943EC102B53EC102B04
:1023100015F0CCF80E990F9A1298FDF79BFF1099C3
:10232000119A1298FDF796FF0A9A0B9B0C9890ED64
:102330000A0B51EC100BFEF7C3F802460E980B4641
:102340000D9943EC102B53EC102B15F0AFF80E99B0
:102350000F9A1298FDF77EFF1099119A1298FDF7C7
:1023600079FF129848F2A011C0F602010222FDF78F
:1023700071FFFFE740F23030C2F20000002202702D
:1023800040F24430C2F2000040F27451C2F2000147
:1023900010F020FB002840F02581FFE740F27C7020
:1023A000C2F2000040F26401C2F2000110F03AFDF6
:1023B00038B1FFE740F26400C2F2000010F00CFAFE
:1023C00007E141F22840C2F200000078C00710BBCC
:1023D000FFE741F22841C2F200010120087040F2FB
:1023E000FC00C2F2000040F29401C2F2000132226D
:1023F00010F042FB38B9FFE740F22B01C2F20001B6
:102400000120087006E040F22B01C2F2000100201A
:102410000870FFE721E041F22841C2F200010020EC
:10242000087040F2FC00C2F2000040F2A601C2F2C5
:102430000001322210F020FB38B9FFE740F22B01F7
:10244000C2F200010120087006E040F22B01C2F246
:10245000000100200870FFE7FFE740F22B00C2F206
:1024600000000078C007002843D0FFE740F230307A
:10247000C2F200000078C007F0B1FFE741F6240087
:10248000C2F20000049048F25B01C0F6020115F0B0
:102490000DF80498FDF7D7FE0499024640F2FC00BF
:1024A000C2F2000041F62003C2F2000310F0B6FDB4
:1024B00008B9FFE7FFE7FFE741F2FC40C2F2000086
:1024C0000390FDF7C0FE0399024640F2FC00C2F201
:1024D000000041F62003C2F2000310F09FFD08B98E
:1024E000FFE7FFE740F2FC00C2F2000010F04AF9FB
:1024F000FFE740F2F450C2F20000808A002867D063
:10250000FFE740F28C00C2F200000078C00700280C
:102510005ED1FFE740F28C01C2F200010120087099
:1025200040F23031C2F200010020087040F2FC009D
:10253000C2F2000040F2B801C2F20001322210F0F3
:102540009BFA002843D1FFE740F23030C2F200008E
:102550000078C007F0B1FFE741F62400C2F20000A6
:10256000029047F6BC71C0F6020114F09FFF02987A
:10257000FDF769FE0299024640F2FC00C2F200003B
:1025800041F62003C2F2000310F048FD08B9FFE74E
:10259000FFE7FFE741F2FC40C2F200000190FDF7C7
:1025A00052FE0199024640F2FC00C2F2000041F6E0
:1025B0002003C2F2000310F031FD08B9FFE7FFE786
:1025C00040F2FC00C2F2000010F0DCF8FFE7FFE789
:1025D000FFE748F24831C0F602010022104610F031
:1025E000F9F9FFE75CB080BD85B00390029100204F
:1025F0000190FFE7039890F83C00012804D1FFE721
:1026000002208DF81300F7E00399012081F83C00C7
:10261000FFE7FFE7029800680A281CD3FFE702984B
:10262000008800EB4000A0F11E01072000FA01F233
:1026300003980168C8689043C8600299886809884F
:1026400001EB41011E3900FA01F203980168C868E4
:102650001043C86018E00298008800EB4001072092
:1026600000FA01F203980168086990430861029931
:102670008868098801EB410100FA01F203980168BA
:10268000086910430861FFE70298406806281BD8D4
:10269000FFE70298406800EB8000411F1F2000FA0E
:1026A00001F203980168486B9043486302990888D7
:1026B000496801EB8101053900FA01F203980168CC
:1026C000486B104348633DE0029840680C281CD8D2
:1026D000FFE70298406800EB8000A0F123011F2073
:1026E00000FA01F203980168086B904308630299AD
:1026F0000888496801EB8101233900FA01F2039847
:102700000168086B104308631BE00298406800EB07
:102710008000A0F141011F2000FA01F20398016836
:10272000C86A9043C86202990888496801EB810130
:10273000413900FA01F203980168C86A1043C8627F
:10274000FFE7FFE742F20030C4F201000090039877
:10275000006842F20001C4F2010188420BD1FFE798
:1027600002980068122806D1FFE70099486840F4F3
:1027700080004860FFE70398006842F20001C4F25D
:10278000010188422ED1FFE702980068102805D089
:10279000FFE702980068112824D1FFE700994868F4
:1027A00040F40000486002980068102819D1FFE743
:1027B00040F20400C2F2000000684DF68361C4F2EA
:1027C0001B31A0FB0110800C00EB80004000019049
:1027D000FFE7019820B1FFE7019801380190F8E781
:1027E000FFE7FFE7FFE70399002081F83C00FFE7E0
:1027F00000208DF81300FFE79DF8130005B0704727
:1028000081B0009000980068C06C01B07047000073
:1028100080B584B0029000208DF80700029820B99E
:10282000FFE701208DF80F0042E00298806A012145
:10283000C0F60071884201D0FFE7FFE70298006C04
:1028400050B9FFE7029800F037F802990020486479
:10285000029981F83C00FFE70298006CC00600284E
:1028600017D4FFE70298006C40F0020020F4885073
:10287000029908640298FEF741F802990020486422
:102880000298006C40F0010020F0020002990864F8
:1028900003E001208DF80700FFE7FFE70299002021
:1028A00081F83C00FFE79DF807008DF80F00FFE777
:1028B0009DF80F0004B080BD80B58EB00D90002053
:1028C0000C900B900A90099008900D98006842F2C5
:1028D0000001C4F2010188426DD1FFE7FFE700204B
:1028E000079043F64400C4F20200016841F480718D
:1028F0000160006800F4807007900798FFE7FFE729
:102900000020069043F63000C4F20200016841F056
:1029100004010160006800F0040006900698FFE7DB
:10292000FFE70020059043F63000C4F20200016882
:1029300041F001010160006800F001000590059878
:10294000FFE7FFE70020049043F63000C4F20200E6
:10295000016841F002010160006800F0020004908B
:102960000498FFE73F200890032001900990002081
:1029700002900A9040F60000C4F2020008A90391F8
:1029800000F00AFE019A02980399FF230893099226
:102990000A900020C4F2020000F0FEFD019A0298A5
:1029A0000399089209920A9040F20040C4F2020092
:1029B00000F0F2FDFFE70EB080BD000080B584B0EE
:1029C0000290019100200090029800688068400504
:1029D000002816D5FFE7029800688068C005002827
:1029E0000FD5FFE70299086C40F020000864FFE76C
:1029F0000299002081F83C00FFE701208DF80F00CC
:102A00006DE000F0D5FF0090FFE7029800680068D5
:102A100000F00200022829D0FFE70198013020B31E
:102A2000FFE7019840B1FFE700F0C2FF0099401AAC
:102A30000199884218D9FFE702980068006800F001
:102A4000020002280FD0FFE70299086C40F0040052
:102A50000864FFE70299002081F83C00FFE70320AB
:102A60008DF80F003BE0FFE7FFE7CEE70298016833
:102A70006FF0120008600299086C40F4007008645E
:102A800002980068806810F0405F24D1FFE7029848
:102A9000007E00BBFFE702980068C06A10F4700F68
:102AA00007D0FFE70298006880684005002812D42C
:102AB000FFE70299086C20F4807008640298006CAB
:102AC000C004002806D4FFE70299086C40F001001A
:102AD0000864FFE7FFE700208DF80F00FFE79DF88F
:102AE0000F0004B080BD000084B00290002001906F
:102AF000FFE7029890F83C00012804D1FFE702208C
:102B00008DF80F00D6E00299012081F83C00FFE724
:102B1000FFE702980068806800F0010001281ED0DD
:102B2000FFE702980168886840F00100886040F281
:102B30000400C2F2000000684DF68361C4F21B314C
:102B4000A0FB0110800C00EB40000190FFE7019812
:102B500020B1FFE7019801380190F8E7FFE70298FC
:102B600000688068C007002800F09580FFE70298A1
:102B7000006C40F4807040F201618843029908645F
:102B80000298006840684005002809D5FFE70298D0
:102B9000006C40F4805020F4005002990864FFE774
:102BA0000298006CC004002806D5FFE70299486C23
:102BB00020F00600486403E0029900204864FFE723
:102BC000FFE70299002081F83C00FFE742F2003065
:102BD000C4F201000090029801686FF022000860C2
:102BE00000984068C006E8BBFFE70298006842F220
:102BF0000001C4F20101884224D0FFE70298006876
:102C000042F20011C4F20101884208D1FFE742F20A
:102C10000430C4F201000068C00698B1FFE70298D2
:102C2000006842F20021C4F20101884219D1FFE795
:102C300042F20430C4F20100006800F01F000F28C7
:102C40000FD8FFE702980068806810F0405F07D156
:102C5000FFE702980168886840F080408860FFE7DD
:102C6000FFE717E00298006842F20001C4F2010198
:102C700088420ED1FFE702980068806810F0405F3C
:102C800007D1FFE702980168886840F080408860BB
:102C9000FFE7FFE70AE00299086C40F010000864C3
:102CA0000299486C40F001004864FFE700208DF86D
:102CB0000F00FFE79DF80F0004B0704787B0059044
:102CC0000491039200208DF80B00059818B1FFE7DE
:102CD000049820B9FFE701208DF81B0049E0FFE7C9
:102CE00005984079012804D1FFE702208DF81B00E8
:102CF0003FE0059901204871FFE7FFE705990220B1
:102D000008710598006800680190039800F01001B0
:102D100040F6FE7000FA01F1019888430190049991
:102D200008684968084300900098039901F0100171
:102D300000FA01F10198084301900198059909688A
:102D40000860039800F01001C02000FA01F2059815
:102D50000168086890430860059901200871FFE741
:102D6000059900204871FFE79DF80B008DF81B00C6
:102D7000FFE79DF81B0007B07047000080B582B0E8
:102D80000090009820B9FFE701208DF8070016E0B9
:102D90000098007938B9FFE7009900204871009841
:102DA00000F012F8FFE70099022008710099002056
:102DB0000861009A012111718DF80700FFE79DF865
:102DC000070002B080BD000080B588B007900020E9
:102DD000069005900490039002900798006847F2CF
:102DE0000041C4F2000188422FD1FFE7FFE7002035
:102DF000019043F64000C4F20200016841F0005126
:102E00000160006800F0005001900198FFE7FFE7C3
:102E10000020009043F63000C4F20200016841F047
:102E200001010160006800F0010000900098FFE7D8
:102E30003020029003200390002004900020C4F270
:102E4000020002A900F0A8FBFFE708B080BD000067
:102E500086B00490039102920193002000900498A0
:102E600020B9FFE701208DF8170018E004980068EA
:102E70000090039830B9FFE70298009908440830A1
:102E8000009005E002980099084414300090FFE794
:102E900001980099086000208DF81700FFE79DF861
:102EA000170006B07047000083B0019000910198B0
:102EB00020B9FFE701208DF80B0050E0FFE70198F3
:102EC0004079012804D1FFE702208DF80B0046E08D
:102ED000019901204871FFE7FFE70199022008717D
:102EE000009800F01001012000FA01F20198016839
:102EF000086810430860009880B9FFE701980068EF
:102F0000006800F03C003C2807D1FFE70198016809
:102F1000486840F001004860FFE714E0019800684D
:102F2000006800F47010009901F010023C219140FB
:102F3000884207D1FFE701980168486840F0020025
:102F40004860FFE7FFE7019901200871FFE7019959
:102F500000204871FFE700208DF80B00FFE79DF887
:102F60000B0003B07047000080B584B00290029857
:102F7000806D019000F01CFD0090029890F83500E3
:102F800002280DD0FFE7029980204865FFE70299EB
:102F9000002081F83400FFE701208DF80F0055E094
:102FA00002980168086820F016000860029801681D
:102FB000486920F0800048610298006C20B9FFE762
:102FC0000298806C38B1FFE702980168086820F029
:102FD00008000860FFE702980168086820F0010017
:102FE0000860FFE7029800680068C007C8B1FFE703
:102FF00000F0DEFC0099401A062811D3FFE7029981
:10300000202048650299032081F83500FFE70299E6
:10301000002081F83400FFE703208DF80F0015E051
:10302000E0E70298C16D3F208840019988600299CD
:10303000012081F83500FFE70299002081F8340073
:10304000FFE7FFE700208DF80F00FFE79DF80F0076
:1030500004B080BD82B00090009890F8350002283E
:1030600007D0FFE700998020486501208DF8070010
:103070000EE00099052081F8350000980168086885
:1030800020F001000860FFE700208DF80700FFE74F
:103090009DF8070002B0704780B584B0039000F03F
:1030A00087FC0290039801900198013048B1FFE736
:1030B00040F21200C2F20000017801980844019029
:1030C000FFE7FFE700F074FC0299401A019988427B
:1030D00001D2FFE7F6E704B080BD000080B586B0FE
:1030E0000490039101208DF80B0000200190FFE770
:1030F00041F2B830C2F20000007E012804D1FFE79F
:1031000002208DF817006CE041F2B831C2F20001E4
:1031100001200876FFE7FFE74CF25030FEF788F910
:103120008DF80B009DF80B0000284DD1FFE70399A7
:103130004FF0FF30086004980068012814D1FFE7C1
:103140000499087C4968FEF777F84CF25030FEF796
:103150006FF98DF80B0043F61041C4F202010868C4
:1031600020F0040008602CE0049880680190FFE7DC
:10317000019804998A68C9681144884220D2FFE7FF
:1031800001980499097CFDF7C3FF4CF25030FEF71B
:103190004FF98DF80B0043F61041C4F202010868A4
:1031A00020F0FA0008609DF80B0020B1FFE70198BD
:1031B0000399086004E0FFE7019801300190D7E728
:1031C000FFE7FDF7E7FFFFE7FFE741F2B831C2F2A3
:1031D000000100200876FFE79DF80B008DF817002E
:1031E000FFE79DF8170006B080BD000043F61041D0
:1031F000C4F20201086840F00040086000207047F7
:1032000080B588B0069005910393029201208DF855
:103210000700FFE741F2B830C2F20000007E01284B
:1032200004D1FFE702208DF81F0051E041F2B831D0
:10323000C2F2000101200876FFE7FFE74CF25030B0
:10324000FEF7F6F88DF807009DF8070098BBFFE73A
:10325000069830B9FFE705989DF80810FEF706F8C4
:103260001AE00698012806D1FFE70598BDF8081076
:10327000FEF732F80FE00698022805D1FFE705981F
:103280000299FEF743F805E00598029A039BFEF7C2
:1032900005F8FFE7FFE7FFE74CF25030FEF7C8F80C
:1032A0008DF8070043F61041C4F20201086820F0CF
:1032B00001000860FFE7FFE741F2B831C2F2000108
:1032C00000200876FFE79DF807008DF81F00FFE754
:1032D0009DF81F0008B080BD81B000208DF803006C
:1032E00043F61040C4F202000068C00FD8B1FFE7F7
:1032F00043F60441C4F2020140F22310C4F26750C5
:10330000086048F6AB10CCF6EF50086043F610406A
:10331000C4F202000068C00F20B1FFE701208DF861
:103320000300FFE7FFE79DF8030001B070470000CE
:103330008EB00D900C9100200A90099008900B908F
:10334000FFE70B980F2800F20381FFE70B9901209C
:1033500088400A900C980A990840099009980A999F
:10336000884240F0F080FFE70B9820F0030043F61E
:103370000801C4F20101405808900B9800F00300C6
:1033800081000F2000FA01F1089808400890089881
:1033900007900D980021C4F20201884203D1FFE793
:1033A000002006905EE00D9840F20041C4F2020158
:1033B000884203D1FFE70120059050E00D9840F6C8
:1033C0000001C4F20201884203D1FFE70220049009
:1033D00042E00D9840F60041C4F20201884203D158
:1033E000FFE70320039034E00D9841F20001C4F29E
:1033F0000201884203D1FFE70420029026E00D98E5
:1034000041F20041C4F20201884203D1FFE70520E6
:10341000019018E00D9841F60001C4F202018842C3
:1034200003D1FFE7062000900AE00D9941F6004223
:10343000C4F202020820914208BF07200090FFE773
:1034400000980190FFE701980290FFE7029803902F
:10345000FFE703980490FFE704980590FFE70598BD
:103460000690FFE707980699C9B20B9A02F003028B
:1034700092009140884233D1FFE7099A43F6004118
:10348000C4F20101086890430860099A43F60441B8
:10349000C4F20101086890430860099A43F60C41A0
:1034A000C4F20101086890430860099A43F6084194
:1034B000C4F201010868904308600B9800F0030013
:1034C00081000F2088400890089B0B9820F0030192
:1034D00043F60802C4F20102885898438850FFE777
:1034E0000B984100032000FA01F30D9A11689943EB
:1034F0001160DDF82CC00CF007018A000F2101FAE1
:1035000002F30D996FF0030202EA5C020A44116AA9
:10351000994311620B99490000FA01F30D9AD168A1
:103520009943D1600B9A012101FA02F30D9A516877
:10353000994351600B99490000FA01F20D9988688E
:1035400090438860FFE7FFE70B9801300B90F8E6A7
:103550000EB0704781B0ADF8020001B070470000B6
:1035600080B582B0ADF8060043F61440C4F2010005
:103570000068BDF8061008420CD0FFE7BDF8060051
:1035800043F61441C4F201010860BDF80600FFF7DC
:10359000E1FFFFE702B080BD8EB00D900C910020DE
:1035A0000A90099008900B90FFE70B980F2800F203
:1035B000CC81FFE70B99012088400A900C980068A5
:1035C0000A990840099009980A99884240F0B88100
:1035D000FFE70C98406800F00300012807D0FFE7E0
:1035E0000C98406800F0030002282FD1FFE70D98E7
:1035F000806808900B984100032000FA01F10898B8
:10360000884308900C98C0680B99490000FA01F1B2
:1036100008980843089008980D9988600D984068AC
:1036200008900B99012000FA01F10898884308904E
:103630000C984068C0F300100B9900FA01F108984B
:103640000843089008980D994860FFE70C98406877
:1036500000F00300032818D0FFE70D98C068089019
:103660000B984100032000FA01F108988843089064
:103670000C9880680B99490000FA01F108980843FA
:10368000089008980D99C860FFE70C98406800F012
:103690000300022826D1FFE70D980B996FF0030273
:1036A00002EA51010844006A08900B9800F00700F4
:1036B00081000F2000FA01F10898884308900C98C7
:1036C00000690B9901F00701890000FA01F10898DF
:1036D0000843089008980D990B9B02EA5302114485
:1036E0000862FFE70D98006808900B9841000320DE
:1036F00000FA01F10898884308900C98406800F09F
:1037000003000B99490000FA01F10898084308905A
:1037100008980D9908600C9880798007002800F0BF
:103720000E81FFE7FFE70020079043F64400C4F254
:103730000200016841F480410160006800F48040AB
:1037400007900798FFE70B9820F0030043F6080165
:10375000C4F20101405808900B9800F0030081006A
:103760000F2000FA01F10898884308900D98002175
:10377000C4F20201884203D1FFE7002006905EE018
:103780000D9840F20041C4F20201884203D1FFE7E4
:103790000120059050E00D9840F60001C4F20201AE
:1037A000884203D1FFE70220049042E00D9840F6E2
:1037B0000041C4F20201884203D1FFE703200390D5
:1037C00034E00D9841F20001C4F20201884203D1B5
:1037D000FFE70420029026E00D9841F20041C4F278
:1037E0000201884203D1FFE70520019018E00D98FF
:1037F00041F60001C4F20201884203D1FFE706202E
:1038000000900AE00D9941F60042C4F2020208203D
:10381000914208BF07200090FFE700980190FFE762
:1038200001980290FFE702980390FFE70398049045
:10383000FFE704980590FFE705980690FFE70698D4
:10384000C0B20B9901F00301890000FA01F1089858
:103850000843089008980B9921F0030143F60802E9
:10386000C4F20102885043F60840C4F20100006827
:10387000089009990898884308900C988079C006A8
:10388000002805D5FFE70999089808430890FFE745
:10389000089843F60841C4F20101086043F60C4061
:1038A000C4F20100006808900999089888430890BC
:1038B0000C9880798006002805D5FFE709990898BB
:1038C00008430890FFE7089843F60C41C4F2010151
:1038D000086043F60440C4F20100006808900999AA
:1038E0000898884308900C9880798007002805D5AF
:1038F000FFE70999089808430890FFE7089843F6FE
:103900000441C4F20101086043F60040C4F2010022
:103910000068089009990898884308900C98807965
:10392000C00728B1FFE70999089808430890FFE706
:10393000089843F60041C4F201010860FFE7FFE781
:10394000FFE70B9801300B902FE60EB07047000098
:1039500082B00190ADF8021001980069BDF8021024
:10396000084204D0FFE701208DF8010003E00020A9
:103970008DF80100FFE79DF8010002B070470000DC
:1039800082B00190ADF802108DF801209DF8010081
:1039900028B1FFE7BDF802000199886105E0BDF894
:1039A0000200000401998861FFE702B0704700003F
:1039B00041F61000C2F200000068704780B58EB07A
:1039C0000C900C9820B9FFE701208DF8370043E1F7
:1039D0000C9890F83D0040B9FFE70C99002081F861
:1039E0003C000C9800F05CFCFFE70C99242081F867
:1039F0003D000C980168086820F0010008600C98F0
:103A00000168086840F4004008600C980168086884
:103A100020F40040086001F099FF0A900C9840687B
:103A200048F2A061C0F2010188420BD8FFE70A9971
:103A300048F28042C0F21E020020914238BF0120AD
:103A400009900AE00A9940F60012C0F23D020020F7
:103A5000914238BF01200990FFE70998012804D15D
:103A6000FFE701208DF83700F6E00A984DF68361F4
:103A7000C4F21B31A0FB0110800C0B900C98006865
:103A8000406820F03F000B9908430C990968486092
:103A90000C980068006A20F03F0008900C9840687D
:103AA00048F2A061C0F20101884204D8FFE70B98F8
:103AB000013007900EE00B984FF49671484344F69E
:103AC000D351C1F26201A0FB0101012000EB911072
:103AD0000790FFE70898079908430C99096808625E
:103AE0000C980068C0694CF6FF71884306900C98EA
:103AF000406848F2A061C0F2010188421FD8FFE788
:103B00000A9801380C9949684900B0FBF1F001307E
:103B10006FF31F30032803D8FFE7042005900BE064
:103B20000A9801380C9949684900B0FBF1F001305E
:103B30006FF31F300590FFE7059804904CE00C9858
:103B4000806868B9FFE70A9801380C99496801EB69
:103B50004101B0FBF1F001306FF31F3003900DE035
:103B60000A9801380C99496819225143B0FBF1F0C9
:103B70000130042161F31F300390FFE70398000533
:103B800018B9FFE70120029023E00C98806868B91B
:103B9000FFE70A9801380C99496801EB4101B0FB35
:103BA000F1F001306FF31F3001900DE00A980138F9
:103BB0000C99496819225143B0FBF1F001300421FE
:103BC00061F31F300190FFE7019840F4004002903C
:103BD000FFE702980490FFE70698049908430C99C0
:103BE0000968C8610C980068006820F0C0000C9B50
:103BF0001968DA691B6A1A43104308600C98006858
:103C0000806848F2FF3188430C9A1168D3681269C2
:103C10001A43104388600C980068C06820F0FF00C9
:103C20000C9B19685A699B691A431043C8600C9829
:103C30000168086840F0010008600C9900200864E1
:103C40000C9A202182F83D100C9908630C9981F898
:103C50003E008DF83700FFE79DF837000EB080BDBD
:103C600080B58CB0DDF838C00A90ADF82610089207
:103C7000ADF81E30FFF79CFE06900A9890F83D00C4
:103C8000202840F0FE81FFE70A9806996A461160F5
:103C90000221C0F210010122192305F005F920B11B
:103CA000FFE702208DF82F00EFE1FFE70A9890F878
:103CB0003C00012804D1FFE702208DF82F00E4E149
:103CC0000A99012081F83C00FFE7FFE70A980068A5
:103CD000006800F00100012807D0FFE70A9801689A
:103CE000086840F001000860FFE70A98016808686A
:103CF00020F4006008600A99222081F83D000A99AA
:103D0000102081F83E000A990020086408980A995A
:103D10004862BDF81E000A9948850A98408D0A99A4
:103D200008850A990020CFF6FF70C8620A98BDF88E
:103D300026100E9A069B04F001FF20B1FFE7012038
:103D40008DF82F00A1E10A98008DA0B9FFE7FFE7E9
:103D5000002005900A980068406905900A9800685C
:103D6000806905900598FFE70A980168086840F4A3
:103D70000070086053E00A98008D01281AD1FFE70F
:103D80000A980168086820F480600860FFE7002056
:103D900004900A980068406904900A980068806955
:103DA00004900498FFE70A980168086840F40070DE
:103DB000086033E00A98008D02281AD1FFE70A98BC
:103DC0000168086820F4806008600A980168086843
:103DD00040F400600860FFE7002003900A98006844
:103DE000406903900A980068806903900398FFE790
:103DF00013E00A980168086840F480600860FFE7F3
:103E0000002002900A980068406902900A980068B1
:103E1000806902900298FFE7FFE7FFE7FFE7FFE70F
:103E20000A98008D002800F01A81FFE70A98008D9B
:103E3000032800F2CC80FFE70A98008D01281ED1EC
:103E4000FFE70A980E99069A05F05CF920B1FFE7A2
:103E500001208DF82F0018E10A98006800690A997E
:103E6000496A08700A99486A013048620A99088DBF
:103E7000013808850A99488D01384885A6E00A98D6
:103E8000008D02283CD1FFE70A980E9B06996A46EE
:103E900011600421C0F20101002205F005F820B1F3
:103EA000FFE701208DF82F00EFE00A98016808680D
:103EB00040F4007008600A98006800690A99496A2D
:103EC00008700A99486A013048620A99088D0138D9
:103ED00008850A99488D013848850A980068006964
:103EE0000A99496A08700A99486A013048620A9931
:103EF000088D013808850A99488D0138488564E0A5
:103F00000A980E9B06996A4611600421C0F20101CD
:103F1000002204F0C9FF20B1FFE701208DF82F0037
:103F2000B3E00A980168086820F4806008600A9885
:103F3000006800690A99496A08700A99486A01305C
:103F400048620A99088D013808850A99488D013818
:103F500048850A980E9B06996A4611600421C0F2B2
:103F60000101002204F0A0FF20B1FFE701208DF83D
:103F70002F008AE00A980168086840F40070086021
:103F80000A98006800690A99496A08700A99486A9B
:103F9000013048620A99088D013808850A99488DD0
:103FA000013848850A98006800690A99496A0870CA
:103FB0000A99486A013048620A99088D01380885D3
:103FC0000A99488D01384885FFE7FFE746E00A98DF
:103FD0000E99069A05F096F820B1FFE701208DF8BA
:103FE0002F0052E00A98006800690A99496A08702F
:103FF0000A99486A013048620A99088D0138088593
:104000000A99488D013848850A980068406900F08F
:1040100004010120B0EB910F1FD1FFE70A98008D3A
:10402000032807D1FFE70A980168086820F4806038
:104030000860FFE70A98006800690A99496A0870F1
:104040000A99486A013048620A99088D0138088542
:104050000A99488D01384885FFE7FFE7E0E60A99AD
:10406000202081F83D000A99002081F83E00FFE7FA
:104070000A99002081F83C00FFE700208DF82F000E
:1040800003E002208DF82F00FFE79DF82F000CB011
:1040900080BD000080B588B0DDF828C00690ADF87E
:1040A00016100492ADF80E30FFF782FC02900698CD
:1040B00090F83D00202840F0EB80FFE70698029939
:1040C0006A4611600221C0F210010122192304F096
:1040D000EBFE20B1FFE702208DF81F00DCE0FFE7D8
:1040E000069890F83C00012804D1FFE702208DF8E3
:1040F0001F00D1E00699012081F83C00FFE7FFE7AF
:1041000006980068006800F00100012807D0FFE76A
:1041100006980168086840F001000860FFE706980B
:104120000168086820F4006008600699212081F881
:104130003D000699102081F83E0006990020086491
:10414000049806994862BDF80E00069948850698BD
:10415000408D0699088506990020CFF6FF70C86249
:104160000698BDF816100A9A029B04F0BDFD20B116
:10417000FFE701208DF81F008EE0FFE7002001908F
:10418000069800684069019006980068806901906F
:104190000198FFE7FFE70698008D002860D0FFE751
:1041A00006980A99029A05F01BF880B1FFE7069875
:1041B000006C042807D1FFE706980168086840F4FE
:1041C00000700860FFE701208DF81F0064E006988A
:1041D0000168406A007808610699486A01304862BF
:1041E0000699488D013848850699088D013808855B
:1041F00006980068406900F004010120B0EB910FBF
:1042000016D1FFE70698008D90B1FFE70698016888
:10421000406A007808610699486A01304862069948
:10422000488D013848850699088D01380885FFE7D3
:1042300006980A99029A04F0E1FD80B1FFE706981A
:10424000006C042807D1FFE706980168086840F46D
:1042500000700860FFE701208DF81F001CE09AE75E
:1042600006980168086840F40070086006992020EC
:1042700081F83D000699002081F83E00FFE706998D
:10428000002081F83C00FFE700208DF81F0003E0CC
:1042900002208DF81F00FFE79DF81F0008B080BDC9
:1042A00080B588B007900020069005900490039098
:1042B00002900798006845F60001C4F200018842A8
:1042C00035D1FFE7FFE70020019043F63000C4F24C
:1042D0000200016841F002010160006800F0020084
:1042E00001900198FFE74FF4406002901220039084
:1042F00000200490032005900420069040F2004026
:10430000C4F2020002A9FFF747F9FFE7002000907E
:1043100043F64000C4F20200016841F480010160EC
:10432000006800F4800000900098FFE7FFE708B005
:1043300080BD000040F21200C2F20000027841F697
:104340001001C2F2000108681044086070470000C4
:1043500080B543F60041C4F20201086840F40070E1
:104360000860086840F480600860086840F4807065
:104370000860032000F094F80F2000F005F800F02A
:104380003BF8002080BD000080B582B0009040F274
:104390000400C2F20000006840F21201C2F2000103
:1043A0000A784FF47A71B1FBF2F1B0FBF1F003F04F
:1043B000A5F820B1FFE701208DF8070018E000986C
:1043C0000F280DD8FFE700994FF0FF30002200F0D2
:1043D0004DF8009840F21401C2F20001086003E0B9
:1043E00001208DF8070003E000208DF80700FFE7AB
:1043F0009DF8070002B080BD82B0FFE70020019069
:1044000043F64400C4F20200016841F480410160B7
:10441000006800F4804001900198FFE7FFE700206A
:10442000009043F64000C4F20200016841F0805160
:104430000160006800F0805000900098FFE702B033
:104440007047000080B582B08DF807009DF9070025
:1044500009F0A0FF02B080BD80B582B08DF80700E2
:104460009DF9070009F0B2FF02B080BD80B586B0AB
:104470008DF81700049103920020029009F0BEFF0E
:1044800002909DF91700019002980499039A05F093
:1044900067FA0146019809F0B9FF06B080BD000037
:1044A00080B582B00190019809F0D2FF02B080BDC2
:1044B00082B001908DF8031002B0704780B582B0D1
:1044C00001900198D0F8E00408F096F902B080BDA0
:1044D00080B582B001908DF80310019AD2F8E00403
:1044E0009DF8031001EBC10302EB8302126A07F08F
:1044F000E1FF02B080BD000080B582B001908DF870
:104500000310019AD2F8E0049DF8031001EBC103F7
:1045100002EB8302D2F8602208F094F802B080BD6A
:1045200080B582B001900198D0F8E00408F06AF9F3
:1045300002B080BD80B584B003908DF80B109DF85B
:104540000B00000600280CD5FFE703989DF80B1020
:1045500001F00F0101EBC10100EB8100143001906B
:104560000CE003989DF80B1001F00F0101EBC10165
:1045700000EB810000F515700190FFE703980068DB
:10458000019909F03DFB8DF80A009DF80A0004B07E
:1045900080BD000080B584B002908DF807109DF8B2
:1045A000070000F00F0002990979884204D9FFE75B
:1045B00001208DF80F004DE09DF80700000600284F
:1045C0000FD5FFE702989DF8071001F00F0101EBEE
:1045D000C10100EB81001430009000990120487067
:1045E0000FE002989DF8071001F00F0101EBC101E7
:1045F00000EB810000F515700090009900204870D4
:10460000FFE70099002088709DF8070000F00F0078
:1046100000990870FFE7029890F89404012804D1EB
:10462000FFE702208DF80F0014E00299012081F8C5
:104630009404FFE7FFE702980068009909F040F84A
:10464000FFE70299002081F89404FFE700208DF82D
:104650000F00FFE79DF80F0004B080BD80B586B065
:1046600004908DF80F10ADF80C208DF80B30002061
:104670008DF80A009DF80F00000600280FD5FFE70F
:1046800004989DF80F1001F00F0101EBC10100EB40
:104690008100143001900199012048700FE00498C6
:1046A0009DF80F1001F00F0101EBC10100EB81003B
:1046B00000F515700190019900204870FFE79DF802
:1046C0000F0000F00F0001990870BDF80C006FF3A7
:1046D000DF20019988609DF80B000199087101980D
:1046E000407820B1FFE7019908784883FFE79DF8FB
:1046F0000B00022804D1FFE7019900204871FFE771
:10470000FFE7049890F89404012804D1FFE7022001
:104710008DF8170015E00499012081F89404FFE753
:10472000FFE704980068019908F0F4FEFFE7049998
:10473000002081F89404FFE79DF80A008DF8170027
:10474000FFE79DF8170006B080BD000080B586B079
:1047500005908DF813100392029305989DF813109D
:1047600001F00F0101EBC10100EB810000F51570B4
:10477000019003980199C860029801990861019914
:1047800000204861019948709DF8130000F00F0067
:104790000199087005988079012804D1FFE70398F2
:1047A0000199C861FFE7059A10680199927909F0AB
:1047B0002BF8002006B080BD80B584B002908DF843
:1047C00007109DF8070000F00F0002990979884250
:1047D00004D9FFE701208DF80F0058E09DF807008D
:1047E000000600280FD5FFE702989DF8071001F09A
:1047F0000F0101EBC10100EB810014300090009922
:10480000012048700DE002989DF8071001EBC101EE
:1048100000EB810000F515700090009900204870B1
:10482000FFE70099012088709DF8070000F00F0055
:1048300000990870FFE7029890F89404012804D1C9
:10484000FFE702208DF80F0021E00299012081F896
:104850009404FFE7FFE702980068009908F080FFE2
:104860009DF80700000740B9FFE7029A10689179A8
:1048700002F29C4208F0D4FEFFE7FFE70299002015
:1048800081F89404FFE700208DF80F00FFE79DF802
:104890000F0004B080BD000080B586B005908DF893
:1048A00013100392029305989DF8131001F00F0165
:1048B00001EBC10100EB81001430019003980199D4
:1048C000C860029801990861019900204861019926
:1048D000012048709DF8130000F00F000199087046
:1048E00005988079012804D1FFE703980199C861F0
:1048F000FFE7059A10680199927908F085FF00207A
:1049000006B080BD80B58CB00B900B9800680A9003
:104910000A9809900B98006809F064FA002840F0A2
:104920000B84FFE70B98006809F0C8FA10B9FFE79D
:1049300000F002BC0998D0F80808C0F30D200B99CC
:10494000C1F8D4040B98006809F0B8FA8007002871
:1049500007D5FFE70B980168486900F0020048613D
:10496000FFE70B98006809F0A9FAC006002862D595
:10497000FFE70B980168886920F0100088610A98A9
:10498000006A02900B98029901F00F0101EBC1013E
:1049900000EB810000F515700890029800F4F0110A
:1049A0000220B0EB514F23D1FFE7BDF8080047F6D6
:1049B000F07108421BD0FFE70A980899C968029A6B
:1049C000C2F30A1209F088FA029847F6F07100EA79
:1049D0000103089AD06800EB1310D060029800EA37
:1049E00001020899486900EB12104861FFE71BE0DB
:1049F000029800F4F0110620B0EB514F12D1FFE7FE
:104A00000A980B9901F29C41082209F065FA029874
:104A100047F6F07100EA01020899486900EB1210AC
:104A2000486100E0FFE7FFE70B980168886940F004
:104A300010008861FFE70B98006809F03FFA000357
:104A4000002840F1A680FFE7002004900B98006842
:104A500009F0E2F90690FFE70698002800F0988038
:104A6000FFE79DF81800C007002800F08A80FFE7E4
:104A70000B9800689DF8101009F008FA05909DF851
:104A80001400C00760B1FFE70998049900EB4111D9
:104A90000120C1F8080B0B98049904F0EDFFFFE723
:104AA0009DF81400000700280CD5FFE70998049929
:104AB00000EB41110820C1F8080B0B98049904F091
:104AC00095FFFFE79DF81400C006002808D5FFE712
:104AD0000998049900EB41111020C1F8080BFFE779
:104AE0009DF81400800700282DD5FFE70A9840693B
:104AF0000006002808D5FFE70999D1F8040840F41A
:104B00008060C1F80408FFE70B98049901EBC1012C
:104B100000EB810000F5157008900898C078012816
:104B200009D1FFE708990020C8700B989DF8101074
:104B300000F012FBFFE70998049900EB41110220F5
:104B4000C1F8080BFFE79DF814008006002808D57F
:104B5000FFE70998049900EB41112020C1F8080BE8
:104B6000FFE79DF815008006002809D5FFE70998A2
:104B7000049900EB41114FF40050C1F8080BFFE716
:104B8000FFE704980130049006984008069063E718
:104B9000FFE70B98006809F091F94003002840F105
:104BA000C680FFE70B98006809F024F90690002002
:104BB0000490FFE70698002800F0B880FFE79DF812
:104BC0001800C007002800F0AA80FFE70B980068D3
:104BD0009DF8101009F032F905909DF81400C007F7
:104BE00000283ED0FFE7049800F00F01012000FAF2
:104BF00001F10391039B099AD2F834189943C2F842
:104C000034180999049A01EB4211C1F808090B986C
:104C1000807901281FD1FFE70B98049901EBC101AE
:104C200000EB8101CA69086A10440862049888B9D7
:104C3000FFE70B98049901EBC10100EB8100406A8A
:104C400040B9FFE70B99086801F29C42012108F086
:104C5000E7FCFFE7FFE70B989DF81010FFF738FC23
:104C6000FFE79DF814000007002808D5FFE7099822
:104C7000049900EB41110820C1F80809FFE79DF8ED
:104C80001400C006002808D5FFE70998049900EB36
:104C900041111020C1F80809FFE79DF814004006F3
:104CA000002808D5FFE70998049900EB411140203E
:104CB000C1F80809FFE79DF814008007002822D5F5
:104CC000FFE70A98049909F029F80B98049901EB79
:104CD000C10100EB8100143008900898C0780128C9
:104CE00009D1FFE708990020C8700B989DF81010B3
:104CF00000F024FAFFE70998049900EB4111022023
:104D0000C1F80809FFE79DF814000006002805D542
:104D1000FFE70B98049904F093FFFFE7FFE704987F
:104D20000130049006984008069043E7FFE70B988F
:104D3000006809F0C3F8C00F00B3FFE70999D1F884
:104D4000040820F00100C1F804080B9890F8CC0486
:104D5000012808D1FFE70B98002180F8CC140B98AC
:104D6000FFF7A6FB03E00B9800F02EFAFFE70B9885
:104D70000168486900F000404861FFE70B9800684F
:104D800009F09CF80005002811D5FFE70998D0F834
:104D90000808C00720B1FFE70B9800F063FAFFE7AF
:104DA0000B980168486900F400604861FFE70B98C0
:104DB000006809F083F8C004002840F18680FFE70E
:104DC0000999D1F8040820F00100C1F804080B98F3
:104DD0000068102108F0A2FF00200790FFE7079865
:104DE0000B990979884231D2FFE70998079900EBBE
:104DF00041114FF67F30C1F808090999079A01EB74
:104E00004212D2F8001921F40011C2F800190999D0
:104E1000079A01EB4211C1F8080B0998079900EBBA
:104E20004111D1F8000B20F40010C1F8000B0998D3
:104E3000079900EB4111D1F8000B40F00060C1F878
:104E4000000BFFE7079801300790C8E70999D1F8F0
:104E50001C0840F00110C1F81C080B98C07B78B109
:104E6000FFE70999D1F8840840F00B00C1F88408E5
:104E70000999D1F8440840F00B00C1F844080FE04C
:104E80000999D1F8140842F22B021043C1F8140812
:104E90000999D1F8100840F00B00C1F81008FFE79D
:104EA0000999D1F8000820F4FE60C1F800080B9AB7
:104EB0001068917902F29C4208F0B2FB0B980168ED
:104EC000486900F480504861FFE70B98006808F0DB
:104ED000F5FF800400281FD5FFE70B98006808F055
:104EE00089FB0B98006808F057FF0B99C8710B9865
:104EF0000068019000F024FD014601980B9AD279D8
:104F000009F060F80B9800F035F90B9801684869D2
:104F100000F400504861FFE70B98006808F0CEFFEE
:104F2000000700280AD5FFE70B9800F057F90B9807
:104F30000168486900F008004861FFE70B980068C5
:104F400008F0BCFF0006002825D5FFE70A9988690C
:104F500020F08000886101200490FFE704980B99FD
:104F60000979884216D2FFE70B98049901EBC10139
:104F700000EB810090F85702012806D1FFE70B985B
:104F80009DF81010FFF7D6FAFFE7FFE7049801300D
:104F90000490E3E7FFE70B98006808F08FFFC0027A
:104FA00000283CD5FFE701200490FFE704980B9907
:104FB000097988422CD2FFE70998049900EB411047
:104FC000D0F8000902900B98049901EBC10100EBA5
:104FD0008100007E012816D1FFE79DF80B00000636
:104FE000002810D5FFE70B98049901EBC10100EBF5
:104FF00081010120C8750B989DF8101041F08001C7
:10500000FFF798FAFFE7FFE7049801300490CDE737
:105010000B980168486900F480104861FFE70B981D
:10502000006808F04BFF8002002855D5FFE70120FB
:105030000490FFE704980B990979884245D2FFE76D
:105040000998049900EB4110D0F8000B02900B98DE
:10505000049901EBC10100EB810090F8580201288E
:105060002ED1FFE79DF80B000006002828D5FFE7AA
:10507000029800F480300B99D1F8D41401F00101AA
:1050800088421DD1FFE70B98049901EBC10100EBA9
:105090008101012081F857020A99886940F0800057
:1050A00088610A9840690006002808D4FFE709993A
:1050B000D1F8040840F40070C1F8040805E0FFE7E7
:1050C000FFE7049801300490B4E70B980168486941
:1050D00000F400104861FFE70B98006808F0EEFE4E
:1050E000400000280AD5FFE70B98FFF7E7F90B9877
:1050F0000168486900F080404861FFE70B9800684C
:1051000008F0DCFE4007002815D5FFE70B98006883
:10511000406802909DF808004007002804D5FFE78A
:105120000B98FFF7FDF9FFE7029A0B9801684868B2
:1051300010434860FFE7FFE70CB080BD80B582B048
:1051400001908DF803100198D0F8E0049DF8031049
:1051500007F0A6FB02B080BD80B582B001908DF84B
:1051600003100198D0F8E0049DF8031007F0D0FB7D
:1051700002B080BD80B582B0019001208DF803009F
:105180000198C07920B9FFE700208DF803000CE0FA
:105190000198C079022804D1FFE701208DF80300AF
:1051A00002E0FBF767FFFFE7FFE70198D0F8E004B4
:1051B0009DF8031007F0ACFC0198D0F8E00407F06C
:1051C00027FC02B080BD000080B582B0019001983C
:1051D000D0F8E00407F06AFC02B080BD80B582B070
:1051E00001900198D0F8E00407F072FC02B080BD95
:1051F00080B584B002908DF80710FFE7029890F810
:105200009404012804D1FFE702208DF80F0019E073
:105210000299012081F89404FFE7FFE79DF8070059
:1052200002994874029800689DF8071008F0AEFED5
:10523000FFE70299002081F89404FFE700208DF831
:105240000F00FFE79DF80F0004B080BD80B582B06D
:1052500001900199D1F8E00401F29C4107F082FC31
:1052600002B080BD80B582B001900198D0F8E00412
:1052700007F0E0FC01980168D1F8000E40F0010051
:10528000C1F8000E0198C07A48B1FFE74EF6105100
:10529000CEF20001086840F006000860FFE702B0A7
:1052A00080BD000080B586B004900020039002907D
:1052B0000498006800F00100012806D0FFE7049878
:1052C0000078400700284ED5FFE76821C4F2472147
:1052D00000200860FEF76CFB0390FFE743F6000038
:1052E000C4F20200006800F000610020B0EBD16F52
:1052F0000CD0FFE7FEF75CFB0399401A032804D3A8
:10530000FFE703208DF81700E4E0E7E70499486819
:105310008968800140EA017043F68401C4F2020109
:1053200008606821C4F2472101200860FEF740FBB5
:105330000390FFE743F60000C4F20200006800F0AB
:1053400000610020B0EBD16F0CD1FFE7FEF730FB1E
:105350000399401A032804D3FFE703208DF81700B0
:10536000B8E0E7E7FFE7049800788007002840F1FD
:10537000AD80FFE7FFE70020019043F64000C4F254
:105380000200016841F080510160006800F0805027
:1053900001900198FFE747F20001C4F2000108689C
:1053A00040F480700860FEF703FB0390FFE747F2CC
:1053B0000000C4F200000068C00500280CD4FFE71C
:1053C000FEF7F6FA0399401A032804D3FFE70320F7
:1053D0008DF817007EE0EAE743F67000C4F20200A1
:1053E000006800F440700290029800283ED0FFE769
:1053F00002980499C96801F44071884236D0FFE7E9
:1054000043F67000C4F20200016821F44071029179
:1054100040F64062C4F24722012111600021116070
:10542000029901600068C007F8B1FFE7FEF7C0FA13
:105430000390FFE743F67000C4F20200006800F03A
:1054400002010020B0EB510F0ED1FFE7FEF7B0FADA
:105450000399401A41F28931884204D3FFE70320BF
:105460008DF8170036E0E5E7FFE7FFE7FFE7049870
:10547000C06800F44070B0F5407F11D1FFE743F6FB
:105480000801C4F20201086820F4F810049AD268F6
:105490004FF6FF43C0F6FF731A401043086008E060
:1054A00043F60801C4F20201086820F4F81008600D
:1054B000FFE70498C2686FF31F3243F67001C4F22D
:1054C0000201086810430860FFE7FFE700208DF83D
:1054D0001700FFE79DF8170006B080BD80B584B0C7
:1054E00002900191029820B9FFE701208DF80F008A
:1054F00021E1019843F60041C4F20201096801F07C
:105500000701884212D9FFE7019943F60040C4F22F
:1055100002000170006800F007000199884204D081
:10552000FFE701208DF80F0005E1FFE70298007802
:10553000800700282AD5FFE7029800784007002856
:1055400009D5FFE743F60801C4F20201086840F4F8
:10555000E0500860FFE7029800780007002809D5AE
:10556000FFE743F60801C4F20201086840F4604016
:105570000860FFE743F60801C4F20201086820F062
:10558000F000029A926810430860FFE702980078E2
:10559000C00700286ED0FFE702984068012811D1AB
:1055A000FFE743F60000C4F20200006800F4003197
:1055B0000020B0EB514F04D1FFE701208DF80F0020
:1055C000B9E02CE002984068022805D0FFE7029875
:1055D0004068032811D1FFE743F60000C4F202003F
:1055E000006800F000710020B0EB516F04D1FFE7BC
:1055F00001208DF80F009EE010E043F60000C4F299
:105600000200006800F002010020B0EB510F04D14D
:10561000FFE701208DF80F008DE0FFE7FFE743F67D
:105620000801C4F20201086820F00300029A5268DF
:1056300010430860FEF7BCF90090FFE743F608004E
:10564000C4F20200006800F00C0002994968B0EB57
:10565000810F0ED0FFE7FEF7ABF90099401A41F237
:105660008931884204D3FFE703208DF80F0062E000
:10567000E4E7FFE7019843F60041C4F2020109683C
:1056800001F00701884212D2FFE7019943F600407A
:10569000C4F202000170006800F00700019988421E
:1056A00004D0FFE701208DF80F0044E0FFE70298E7
:1056B0000078400700280CD5FFE743F60801C4F244
:1056C0000201086820F4E050029AD2681043086092
:1056D000FFE702980078000700280DD5FFE743F6A2
:1056E0000801C4F20201086820F46040029A1269BD
:1056F00040EAC2000860FFE700F04CF943F60801F9
:10570000C4F202010968C9B20A0947F6B051C0F6ED
:105710000201895CC84040F20401C2F20001086045
:1057200040F21400C2F200000068FEF72DFE0020D7
:105730008DF80F00FFE79DF80F0004B080BD00005A
:1057400080B584B0FEF734F9029043F60001C4F24C
:105750000201086840F001000860FFE743F600001E
:10576000C4F202000068800700280CD4FFE7FEF7AF
:105770001FF90299401A032804D3FFE703208DF88C
:105780000F00D9E0EAE743F60001C4F2020108681D
:1057900040F080000860FEF70BF9029043F6080124
:1057A000C4F2020100200860FFE743F60800C4F2DB
:1057B0000200006810F00C0F0ED0FFE7FEF7F8F8BB
:1057C0000299401A41F28931884204D3FFE703204D
:1057D0008DF80F00B0E0E8E7FEF7EAF8029043F634
:1057E0000001C4F20201086820F450200860FFE7BD
:1057F00043F60000C4F202000068800300280CD5C4
:10580000FFE7FEF7D5F80299401A652804D3FFE7B1
:1058100003208DF80F008FE0EAE7FEF7C9F8029049
:1058200043F60001C4F20201086820F080700860AD
:10583000FFE743F60000C4F2020000688001002880
:105840000CD5FFE7FEF7B4F80299401A032804D3F9
:10585000FFE703208DF80F006EE0EAE7FEF7A8F8F7
:10586000029043F60001C4F20201086820F0806053
:105870000860FFE743F60000C4F202000068000180
:1058800000280CD5FFE7FEF793F80299401A032889
:1058900004D3FFE703208DF80F004DE0EAE743F65D
:1058A0000401C4F2020143F21000C0F2004008609B
:1058B00043F68401C4F2020143F20000C2F2000088
:1058C000086043F60C01C4F202010191086820F45B
:1058D000F8500860086820F400500860086840F438
:1058E0001F000860086840F40010086043F6740167
:1058F000C4F20201086820F001000860086840F066
:105900008070086040F20401C2F2000142F20040DF
:10591000C0F2F400086040F21400C2F20000006817
:10592000FEF732FD20B1FFE701208DF80F0003E004
:1059300000208DF80F00FFE79DF80F0004B080BD38
:1059400040F20400C2F200000068704780B5FFF723
:10595000F7FF43F60801C4F202010968C1F382228D
:1059600047F6C051C0F60201895CC84080BD000006
:1059700080B5FFF7E5FF43F60801C4F202010968AC
:1059800089B24A0B47F6C051C0F60201895CC84093
:1059900080BD000080B586B0002005900490039083
:1059A000029043F60800C4F20200006800F00C0008
:1059B0000146019140B1FFE7019804280AD0FFE7B2
:1059C000019808280CD04FE042F20040C0F2F400E9
:1059D00002904FE047F64000C0F27D10029049E08F
:1059E00043F60400C4F20200016801F03F01059192
:1059F00000684002002813D5FFE743F60400C4F214
:105A000002000068C0F3881047F64001C0F27D1123
:105A1000A0FB0101059A0023FAF7D2FB049012E0E3
:105A200043F60400C4F202000068C0F3881042F29A
:105A30000041C0F2F401A0FB0101059A0023FAF72E
:105A4000BFFB0490FFE743F60400C4F202000068C5
:105A500000F44031022000EBD13003900498039908
:105A6000B0FBF1F0029005E042F20040C0F2F40019
:105A70000290FFE7029806B080BD000080B586B0B6
:105A80000490049820B9FFE701208DF8170050E337
:105A900004980078C007002800F0A580FFE743F6CF
:105AA0000800C4F20200006800F00C00042813D0C3
:105AB000FFE743F60800C4F20200006800F00C00A3
:105AC00008281ED1FFE743F60400C4F20200006874
:105AD0004002002815D5FFE743F60000C4F202009B
