:020000040801F1
:10000000D04300209D010108199D01088D8D010834
:10001000159D0108AD0B010845F90108000000001D
:10002000000000000000000000000000B9B401085A
:10003000D11001080000000021A10108BDB601088F
:10004000B7010108B7010108B701010859A2010869
:10005000B7010108B7010108B7010108B70101089C
:10006000B7010108B7010108B7010108B70101088C
:10007000B7010108B7010108B7010108B70101087C
:10008000B7010108B7010108B7010108B70101086C
:10009000B7010108B7010108B7010108B70101085C
:1000A000B7010108B7010108B7010108B70101084C
:1000B000B7010108B7010108B7010108B70101083C
:1000C000B7010108B7010108B7010108B70101082C
:1000D000B7010108A1BF0108B1BF0108B7010108BC
:1000E000D5100108B7010108B7010108B7010108DF
:1000F000B7010108B7010108B7010108B7010108FC
:10010000B7010108B7010108B7010108B7010108EB
:10011000B7010108B7010108CDB70108B70101080F
:10012000B7010108B7010108B7010108B7010108CB
:10013000B7010108B7010108B7010108B7010108BB
:10014000B7010108B7010108B7010108899D01083D
:10015000B7010108B7010108B7010108B70101089B
:10016000B7010108B7010108B7010108B70101088B
:10017000B7010108B7010108B7010108000000003C
:10018000B7010108B7010108DFF80CD000F09EFBB1
:1001900000480047E9460208D0430020064880474F
:1001A00006480047FEE7FEE7FEE7FEE7FEE7FEE75C
:1001B000FEE7FEE7FEE7FEE7B9B70108890101089F
:1001C0002DE9F05F0546002092469B46884606468C
:1001D000814640241BE0284641464746224600F01F
:1001E000DDFA53465A46C01A914110D311461846BB
:1001F000224600F0C4FA2D1A67EB01084F4622464A
:100200000120002100F0BBFA17EB00094E41201E2F
:10021000A4F10104DFDC484631462A464346BDE8E6
:10022000F09FD2B201E000F8012B491EFBD27047CB
:100230000022F6E710B513460A4604461946FFF7B2
:10024000F0FF204610BD421C10F8011B0029FBD115
:10025000801A704710B5044600E0401C0378002B5C
:10026000FBD100E0401C521E04D311F8013B037087
:10027000002BF7D100210170204610BD034611F874
:10028000012B00F8012B002AF9D1184670472DE9FF
:10029000FE4F804681EA0300C00F0C46009021F01B
:1002A000004123F00045B8EB0200A94105D24046C9
:1002B000214690461C460B46024623F00040104360
:1002C00047D0270DC7F30A00C3F30A510290401A22
:1002D000019040286BDAC3F3130040F4801B0098B0
:1002E000924620B10023D2EB030A63EB0B0B01987B
:1002F0005946C0F14002504600F041FA06460D460C
:1003000050465946019A00F059FA10EB0800614135
:10031000002487EA115284EAE7731A4340D0009A16
:1003200062B3019A012A4FEA075215DC001B61EB08
:1003300002014FF0004202EA0752CDE90042001CE0
:1003400041F5801132462B4600F059FA03B0BDE862
:10035000F08F40462146F9E7001B61EB0201001CCB
:1003600041F5801300185B412018A2F5001747EBF8
:10037000030140EAD570B6196D4111E06D084FEAEE
:10038000360645EAC0754FEA0752001B61EB0201D1
:10039000001C41F5801149084FEA30000019514115
:1003A00032462B4603B0BDE8F04F00F019BA009872
:1003B000012240000023D0EB020263EBE0730098BF
:1003C00021464FEAE074B8EB000061EB0401E9E775
:1003D00083F000435BE781F0004158E72DE9FE4FD1
:1003E00081EA030404F0004421F0004100944FF03E
:1003F000000B23F0004350EA01045ED052EA0304EC
:100400005BD0C3F30A54C1F30A552C44A4F2F3346D
:100410000194A0FB0254C1F3130141F48011C3F312
:10042000130343F4801301FB024400FB034E840AD0
:10043000970A44EA815447EA8357A4FB0768029568
:100440008D0A05FB07854FEA932C04FB0C54270506
:10045000029D4FEA065847EA1637B5EB08056EEBE2
:10046000070C870E920E47EA811742EA8312A7FB18
:100470000201B6EB0B0164EB00042B0D43EA0C33D5
:100480005E1844EB1C50DA465146E7FB0201C5F307
:1004900013044FEA0B3343EA14534FEA0432019C2E
:1004A00043EA0603A4F10C040294009CCDE900B4D5
:1004B00000F0A5F903B0BDE8F08F00200146F9E790
:1004C0002DE9F04D81EA030404F0004B21F00045D2
:1004D00014464FF0000A23F0004150EA050220D0F4
:1004E00054EA01021DD0C5F30A570246C5F31303AF
:1004F000C1F31300C1F30A5640F4801543F480138E
:10050000A7EB0608101BD64608F2FD3873EB050072
:1005100002D308F1010801E092185B41B8F1000F25
:1005200003DA00200146BDE8F08D00204FF4801171
:10053000064684460EE0171B73EB050705D3121B16
:1005400063EB050306434CEA010C49084FEA30000F
:1005500092185B4150EA0107EDD152EA030012D034
:1005600082EA040083EA0501084305D0101BAB4171
:1005700006D20122002306E000224FF0004302E0F1
:100580006FF0010253101AEB06004CEB085110EB10
:100590000A0041EB0B01BDE8F04D00F021B930B588
:1005A000041E71F1000404DB4FF00044404264EB90
:1005B0000101141E73F1000405DB1C464FF00043DB
:1005C000524263EB0403801A994101D3012030BDEC
:1005D000002030BD30B5041E71F1000404DB4FF083
:1005E0000044404264EB0101141E73F1000405DB7A
:1005F0001C464FF00043524263EB0403101A8B4138
:1006000001D2012030BD002030BD30B5041E71F193
:10061000000404DB4FF00044404264EB0101141E6F
:1006200073F1000405DB1C464FF00043524263EBBC
:100630000403101A8B4101D3012030BD002030BDCE
:1006400030B5041E71F1000404DB4FF00044404259
:1006500064EB0101141E73F1000405DB1C464FF02E
:100660000043524263EB0403801A994101D20120F6
:1006700030BD002030BD0EB5C10F80EAE0700844E7
:10068000CA07002140F233438DE80E000A460B46AC
:1006900000F0B5F803B000BD0EB540F23341029151
:1006A0000021CDE900110A460B4600F0A8F803B07E
:1006B00000BD70B5C1F30A5201F000450024C1F33A
:1006C000130140F2FF3341F480119A4201DA002015
:1006D00070BD40F233439A42A2F2334203DC5242ED
:1006E00000F05CF800E090402C43F1D0404270BD37
:1006F000C1F30A5210B5C1F3130140F2FF3341F4C4
:1007000080119A4201DA002010BD40F233439A4230
:10071000A2F2334203DC524200F040F810BD904098
:1007200010BDC1F30A52C1F3130140F2FF3341F48B
:1007300080119A4202DA00200146704740F23343AA
:100740009A42A2F2334202DC524200F027B800F093
:1007500016B830B50B46014600202022012409E0DE
:1007600021FA02F59D4205D303FA02F5491B04FA6A
:1007700002F52844151EA2F10102F1DC30BD202A49
:1007800004DB203A00FA02F1002070479140C2F1E8
:10079000200320FA03F3194390407047202A04DB1A
:1007A000203A21FA02F00021704721FA02F3D040EA
:1007B000C2F120029140084319467047202A06DB07
:1007C000CB17203A41FA02F043EAE07306E041FA1F
:1007D00002F3D040C2F1200291400843194670470D
:1007E00010B5141E73F1000408DA401C41F1000139
:1007F00092185B411A4301D120F0010010BD2DE990
:10080000F04D92469B4611B1B1FA81F202E0B0FA86
:1008100080F220329046FFF7B2FF04460F4640EACE
:100820000A0041EA0B0153465A46084313D01146C9
:1008300053EA010019D0C8F140025046FFF7AEFF5D
:1008400005460E46504659464246FFF798FF084374
:1008500005D0012004E020463946BDE8F08D002097
:10086000054346EAE0762C4337430A986305E40AD9
:10087000A0EB08000022FD0A44EA47540A3002D5E2
:1008800000200146E9E7010510196941DDE9084545
:1008900000196941BDE8F04DA2E7000030B5041E23
:1008A00071F1000404DB4FF00044404264EB0101AD
:1008B000141E73F1000405DB1C464FF00043524246
:1008C00063EB0403994208BF904230BD1CB5094850
:1008D0000090094801900546009C06E0E06840F061
:1008E000010394E8070098471034AC42F6D3FFF7B1
:1008F0004FFC000080B70208A0B7020882B0019048
:1009000042F20030C4F2010000900099486820F4DF
:100910004030486001984268009948681043486038
:1009200001980168486820F4807048600198016867
:100930000269486840EA02204860019801684868F6
:1009400020F0407048600198016882684868104350
:10095000486001980168886820F400608860019808
:100960000168C2688868104388600198806A012124
:10097000C0F60071884219D0FFE7019801688868C5
:1009800020F07060886001980168826A886810436E
:10099000886001980168886820F04050886001985C
:1009A0000168C26A8868104388600CE00198016899
:1009B000886820F07060886001980168886820F07D
:1009C00040508860FFE701980168886820F00200C5
:1009D00088600198027E0168886840EA4200886069
:1009E000019890F82000C8B1FFE7019801684868B5
:1009F00040F40060486001980168486820F4604055
:100A0000486001980168426A4EF20000CFF6FF701C
:100A100000EB423248681043486006E001980168E4
:100A2000486820F400604860FFE701980168C86AE0
:100A300020F47000C86201980168C2690020CFF6F6
:100A4000F07000EB0252C86A1043C8620198016856
:100A5000886820F400708860019890F83020016860
:100A6000886840EA4220886001980168886820F41C
:100A700080608860019801684269886840EA822045
:100A8000886002B07047000080B582B00190019983
:100A900042F2E060C2F2000006F0F0F802B080BD61
:100AA00080B542F2E060C2F2000006F00DF90438B1
:100AB00018BF012080BD000080B582B000208DF8F5
:100AC000060000F02BF8012804D0FFE701208DF884
:100AD00007001FE042F2E060C2F2000006F00EF9EB
:100AE0008DF806009DF8060078B9FFE742F2E06055
:100AF000C2F200004FF4006105F0DCFE20B1FFE718
:100B000001208DF80600FFE7FFE79DF806008DF84D
:100B10000700FFE79DF8070002B080BD81B001200B
:100B20008DF803009DF8030001B0704780B586B0D2
:100B3000059004910392029300208DF80700059917
:100B4000049A039B0298EC46CCF8000042F2E06065
:100B5000C2F2000006F0FEF920B1FFE701208DF897
:100B60000700FFE79DF8070006B080BD80B586B09E
:100B7000059004910392029300208DF807000599D7
:100B8000049A039B0298EC46CCF8000042F2E06025
:100B9000C2F2000006F0E8FB20B1FFE701208DF86B
:100BA0000700FFE79DF8070006B080BDFFE7FEE7FE
:100BB00084B08DF80F000291ADF806209DF80F006B
:100BC0000146009123281DD80099DFE801F0121397
:100BD0001415161B1B1B1B1B1B1B1B1B1B1B1B1B77
:100BE0001B1B1B1B1B1B1B1B1B1B1B1B1B1B17185C
:100BF000191A08E007E006E005E004E003E002E07F
:100C000001E000E0FFE7002004B0704700207047DB
:100C100080B582B041F65060C2F20000009041F20F
:100C2000FE51C2F20001002201920BF063FD009818
:100C300040F6FE51C2F200010BF03EFD019802B0F9
:100C400080BD000080B586B00590049104980068CE
:100C5000082820D1FFE70598407803281BD1FFE73B
:100C600042F66901C2F200010120087000200390E1
:100C7000FFE7039807280DDCFFE70598039A805CDF
:100C800042F6A041C2F200018854FFE70398013008
:100C90000390EEE763E004980068082820D1FFE79E
:100CA0000598407806281BD1FFE742F66901C2F299
:100CB00000010220087000200290FFE70298072838
:100CC0000DDCFFE70598029A805C42F6A041C2F273
:100CD00000018854FFE7029801300290EEE73DE002
:100CE00004980068162831D3FFE70598407810284B
:100CF0002CD1FFE742F66901C2F200010020087022
:100D000040F2A461C2F20001012008700598007A47
:100D100040F6A841C2F20001A1F862000598807A6D
:100D2000A1F864000598007BA1F866000598807B17
:100D3000A1F868000598007CA1F86A000598807CFD
:100D4000A1F86C000598007D888306E042F66901F1
:100D5000C2F2000100200870FFE7FFE7FFE70599F6
:100D600041F65060C2F2000001900BF0A5FC019822
:100D70000BF048FC002006B080BD000083B002905C
:100D800001918DF8032000208DF802009DF90200EA
:100D900003B0704780B586B00490ADF80E10002007
:100DA0008DF80D0041F65060C2F20000D0F8BC0290
:100DB00002900298D0F8140220B1FFE701208DF8CC
:100DC000170013E00499BDF80E2041F65060C2F2FE
:100DD000000001900BF08EFC01980BF095FD8DF852
:100DE0000D009DF80D008DF81700FFE79DF8170026
:100DF00006B080BD0000000080B58AB040F20870E7
:100E0000C2F2000090ED001B4BF29830C0F60200D9
:100E100090ED000B51EC110B53EC102BFFF7BFFBC7
:100E200068B9FFE74BF29830C0F6020090ED000B76
:100E300040F20870C2F2000080ED000BFFE740F2C4
:100E40000870C2F2000090ED001B4BF29830C0F623
:100E5000020090ED380B51EC110B53EC102BFFF707
:100E6000D4FB68B9FFE74BF29830C0F6020090ED72
:100E7000380B40F20870C2F2000080ED000BFFE773
:100E800040F21071C2F2000100200870FFE740F24A
:100E90001070C2F2000000781C285ADCFFE740F214
:100EA0000870C2F2000090ED000B8DED080B40F2CF
:100EB0001070C2F2000001784BF29830C0F60200C8
:100EC00000EBC10090ED000B51EC100B9FED7E0B81
:100ED00053EC102BFFF7DBF99DED080B41EC110BE8
:100EE00053EC112B51EC100BFFF7AAFB40BBFFE7B3
:100EF00040F20870C2F2000090ED000B40F210705A
:100F0000C2F2000001784BF29830C0F6020000EB0C
:100F1000C10090ED021B53EC112B51EC100BFFF7AD
:100F200059FB68B9FFE740F21071C2F2000108787E
:100F300040F21172C2F2000210701E200870FFE72A
:100F4000FFE740F21071C2F200010878013008702A
:100F50009DE740F21170C2F20000059002784BF25A
:100F60008041C0F60201049101EB8200406851F813
:100F70002210401AFFF77FFB0246059800920A46AE
:100F8000009942EC101B40F2F861C2F2000103919B
:100F900081ED000B01784BF29830C0F60200019011
:100FA00000EBC10090ED001B90ED020B51EC110B1A
:100FB00053EC102BFFF70CFA0A46039942EC100B86
:100FC00040F20070C2F20000029080ED000B91ED43
:100FD000001B90ED000B51EC110B53EC102BFFF7A5
:100FE0006FFA039A034601988C4605994CEC103B26
:100FF00082ED000B097800EBC10090ED001B40F280
:101000000870C2F2000090ED000B51EC110B53EC94
:10101000102BFFF7DDF9024602980B46039943ECCB
:10102000102B80ED000B91ED001B90ED000B51ECAF
:10103000110B53EC102BFFF7D1F941EC100B51ECD5
:10104000100BFFF736FBFFF716FB024604980B4622
:10105000059943EC102B40F2E862C2F200020692BE
:1010600082ED000B097850F82100FFF704FB0246DF
:10107000069807920A46079942EC111B90ED000B67
:1010800051EC110B53EC102BFFF701F941EC100B55
:1010900040F2F060C2F2000080ED000B90ED000B1A
:1010A00051EC100BFFF705FB46F26761C6F2666173
:1010B00050FB01F1881000EBD170FFF7DCFA41EC36
:1010C000100B0AB080BD00BF000000000000F03F20
:1010D0007047000080B54FF4006002F069F880BDF1
:1010E00072B6FFE7FEE7000080B582B00190009184
:1010F00001980099002200F003F802B080BD0000C2
:1011000084B0039002918DF8072001208DF806002D
:1011100000208DF8050041F64460C2F20000407ADC
:10112000002827DCFFE741F64463C2F20003009386
:10113000597A0020585403995A7A03EB820251607D
:101140009DF807105A7A1A441172597A4A1C5A7239
:101150008DF805109DF805103031029A1170029A31
:101160003A215170029A2F2191700299C8708DF81E
:101170000600FFE79DF8060004B0704783B00290B8
:101180008DF80710002000909DF8070018B9FFE7C0
:101190000020009017E09DF80700012804D1FFE728
:1011A0004FF4807000900DE09DF80700022804D1F4
:1011B000FFE74FF40070009003E04FF440700090A0
:1011C000FFE7FFE7FFE743F61041C4F202010868BA
:1011D00020F440700860009A0868104308600868AE
:1011E00020F0F8000860029A086840EAC20040F067
:1011F00002000860086840F48030086003B070475F
:1012000082B001908DF8031043F61041C4F2020140
:10121000086820F44070086008680860086840F0BA
:10122000010008609DF803000199087002B0704742
:1012300084B003900193009243F61041C4F202017E
:10124000086820F440700860086840F44070086046
:10125000086840F001000860009803990860BFF337
:101260006F8F01980399486004B0704782B0019075
:10127000ADF8021043F61041C4F20201086820F4F0
:1012800040700860086840F480700860086840F0AA
:1012900001000860BDF802000199088002B07047A3
:1012A00082B00190009143F61041C4F20201086837
:1012B00020F440700860086840F400700860086816
:1012C00040F00100086000980199086002B0704782
:1012D00043F60C40C4F202000068C00600280FD597
:1012E000FFE742F64801C2F20001C86940F0100071
:1012F000C86143F60C41C4F2020110200860FFE708
:1013000043F60C40C4F202000068800600280FD5A6
:10131000FFE742F64801C2F20001C86940F0080048
:10132000C86143F60C41C4F2020120200860FFE7C7
:1013300043F60C40C4F202000068400600280FD5B6
:10134000FFE742F64801C2F20001C86940F004001C
:10135000C86143F60C41C4F2020140200860FFE777
:1013600043F60C40C4F202000068000600280FD5C6
:10137000FFE742F64801C2F20001C86940F00200EE
:10138000C86143F60C41C4F2020180200860FFE707
:1013900043F60C40C4F202000068800700280FD515
:1013A000FFE742F64801C2F20001C86940F02000A0
:1013B000C86143F60C41C4F2020102200860FFE755
:1013C0007047000080B584B002900020019042F682
:1013D0004801C2F20001C86102F012F90190FFE772
:1013E00043F60C40C4F202000068C003002815D583
:1013F000FFE70298013080B1FFE7029840B1FFE7B4
:1014000002F0FEF80199401A0299884204D9FFE7D8
:1014100003208DF80F0023E0FFE7E1E743F60C40DF
:10142000C4F202000068C00738B1FFE743F60C4180
:10143000C4F2020101200860FFE743F60C40C4F249
:101440000200006810F0F20F06D0FFE7FFF740FF40
:1014500001208DF80F0003E000208DF80F00FFE75A
:101460009DF80F0004B080BD80B584B047F6102011
:10147000C1F6FF700068039047F61420C1F6FF70B4
:101480000068029047F61820C1F6FF7000680190CE
:101490000199039808440390039888B1FFE70398E3
:1014A00040F2E401C2F2000100910231082208F08A
:1014B00017F9009902981231042208F011F9FFE798
:1014C00004B080BD0000000080B5DAB042F2C06018
:1014D000C2F2000042F6A401C2F20001002204F0B0
:1014E00079FF002840F05E86FFE742F68C10C2F2DA
:1014F00000004B904BF23B71C0F60201FEF7BEFEBE
:1015000042F2C060C2F2000042F69D01C2F2000148
:101510004391002204F022FF43984378C27840F2BE
:101520005410C2F200003F904BF2EA61C0F6020193
:1015300019F05AFA3F9940F27010C2F200003C9044
:10154000FEF79CFE43984378C2784BF2AE61C0F63A
:1015500002010DF25D103B9019F046FA3B993C9860
:101560000A224192FEF776FE3F9940F28210C2F2C3
:1015700000003E90FEF782FE43984378C2784BF21B
:10158000BD61C0F602010DF5A9703D9019F02CFA6D
:101590003D99419A3E98FEF75DFE3F9940F29410C6
:1015A000C2F200004290FEF769FE4BF2A361C0F662
:1015B00002010DF24710409019F016FA4099419A35
:1015C0004298FEF747FE43994B788878CA78694677
:1015D000086042F6B820C2F2000044904BF2D2619B
:1015E000C0F6020119F000FA44994B98082245927E
:1015F000FEF730FE4B984BF23A61C0F6020149917A
:1016000001224A92FEF726FE449842F6A401C2F255
:1016100000010A784B788978EC46CCF800104BF240
:10162000DE61C0F6020119F0DFF94499459A4B9842
:10163000FEF710FE49994A9A4B98FEF70BFE40F6CA
:10164000A840C2F200004C904088FFF725F841EC1A
:10165000100B42F67060C2F20000469080ED000B65
:1016600090ED000B9FEDB21B53EC112B51EC100BC6
:10167000FEF726FF0246469847920A46479942ECF3
:10168000101B80ED000B90ED000B53EC102B42F67D
:101690007810C2F2000048904BF2F661C0F60201E9
:1016A00019F0A2F948994B980622FEF7D3FD499903
:1016B0004A9A4B98FEF7CEFD4C98018842F63C02C0
:1016C000C2F2000211600088B0F5004F0ADBFFE7AC
:1016D00042F63C01C2F2000108684FF6FF72801A20
:1016E0000860FFE742F63C00C2F200000068FEF727
:1016F000C2FF41EC100B42F67060C2F20000319064
:1017000080ED000B90ED000B9FED8B1B53EC112B2C
:1017100051EC100BFEF7D4FE0246319832920A4685
:10172000329942EC101B80ED000B90ED000B53EC56
:10173000102B42F67810C2F2000036904BF2F661A0
:10174000C0F6020119F050F9369942F68C10C2F237
:1017500000003A900622FEF77DFD3A984BF23A617E
:10176000C0F60201389101223992FEF773FD3698D6
:1017700040F6A841C2F200013491B1F8D4204BF2F6
:10178000CF61C0F60201359119F02EF936993A98D9
:1017900005223392FEF75EFD3899399A3A98FEF7A2
:1017A00059FD349A35993698528919F01DF9339AB2
:1017B00036993A98FEF74EFD3899399A3A98FEF7DD
:1017C00049FD349A35993698928819F00DF9369971
:1017D0003A9803223792FEF73DFD3899399A3A98A4
:1017E000FEF738FD349A35993698D28819F0FCF80E
:1017F0003699379A3A98FEF72DFD3899399A3A98E2
:10180000FEF728FD00205090FFE75098032829DCC0
:10181000FFE7509940F6A840C2F2000000EB4100FB
:10182000C28B42F67810C2F200002F904BF2CF61CB
:10183000C0F6020119F0D8F82F9942F68C10C2F2C6
:10184000000030900422FEF705FD30984BF23A611B
:10185000C0F602010122FEF7FDFCFFE750980130BF
:101860005090D2E700204F90FFE74F9801286FDC9F
:10187000FFE74F9940F6A840C2F2000000EB41009C
:10188000C08FFEF709FF41EC100B42F67060C2F208
:1018900000002B9080ED000B90ED000B9FED281BBE
:1018A00053EC112B51EC100BFEF7F1FC02462B9878
:1018B0002A920A462A9942EC101B80ED000B90ED0B
:1018C000000B9FED211B53EC112B51EC100BFEF77D
:1018D000F7FD02462B982C920A462C9942EC101BDD
:1018E00080ED000B90ED000B53EC102B42F67810BE
:1018F000C2F200002D904BF2F661C0F6020119F021
:1019000073F82D9942F68C10C2F200002E90052239
:10191000FEF7A0FC2E984BF23A61C0F602010122BC
:10192000FEF798FCFFE74F9801304F909DE700BF0E
:1019300000000000000059400000000000408F40FF
:10194000000000000056A5C0000000000000244078
:1019500040F6A840C2F200002990428A42F6781070
:10196000C2F2000025904BF2CC61C0F60201229138
:1019700019F03AF8259942F68C10C2F2000028902E
:1019800004222392FEF766FC28984BF23A61C0F6D7
:101990000201269101222792FEF75CFC2299299AE6
:1019A0002598928A19F020F8239A25992898FEF70D
:1019B00051FC2699279A2898FEF74CFC2299299ADF
:1019C0002598D28A19F010F8239A25992898FEF7BD
:1019D00041FC2699279A2898FEF73CFC2299299ADF
:1019E0002598128A19F000F8239A25992898FEF76D
:1019F00031FC2699279A2898FEF72CFC2998B0F8F4
:101A00007C00FEF749FE41EC100B42F67060C2F21A
:101A10000000249080ED000B90ED000B1FED3C1BAF
:101A200053EC112B51EC100BFEF74AFD02462598A2
:101A30000B46249943EC102B81ED000B91ED000B2C
:101A400053EC102B4BF2F661C0F6020118F0CCFFFC
:101A5000259928980622FEF7FDFB2699279A2898B3
:101A6000FEF7F8FB2998B0F8781042F63C02C2F273
:101A7000000211600088B0F5004F0ADBFFE742F674
:101A80003C01C2F2000108684FF6FF72801A08603C
:101A9000FFE742F63C00C2F200000068FEF7EBFDF3
:101AA00041EC100B42F67060C2F20000189080ED1D
:101AB000000B90ED000B1FED601B53EC112B51EC54
:101AC000100BFEF7FDFC0246189819920A46199968
:101AD00042EC101B80ED000B90ED000B53EC102B33
:101AE00042F67810C2F200001D904BF2F661C0F68B
:101AF000020118F079FF1D9942F68C10C2F2000025
:101B000021900622FEF7A6FB21984BF23A61C0F61F
:101B100002011F9101222092FEF79CFB1D9840F6C6
:101B2000A841C2F200011B91B1F888204BF2CF61AD
:101B3000C0F602011C9118F057FF1D99219805224B
:101B40001A92FEF787FB1F99209A2198FEF782FBD5
:101B50001B9A1C991D98B2F88C2018F045FF1A9A10
:101B60001D992198FEF776FB1F99209A2198FEF780
:101B700071FB1B9A1C991D98B2F8802018F034FF55
:101B80001D99219803221E92FEF764FB1F99209A4B
:101B90002198FEF75FFB1B9A1C991D98B2F88420D0
:101BA00018F022FF1D991E9A2198FEF753FB1F99EA
:101BB000209A2198FEF74EFB00204E90FFE74E98AA
:101BC00003282ADCFFE74E9940F6A840C2F2000045
:101BD00000EB4100B0F8A82042F67810C2F20000F5
:101BE00016904BF2CF61C0F6020118F0FDFE169977
:101BF00042F68C10C2F2000017900422FEF72AFB76
:101C000017984BF23A61C0F602010122FEF722FB5F
:101C1000FFE74E9801304E90D1E700204D90FFE74E
:101C20004D98012868DCFFE74D9940F6A840C2F2C4
:101C3000000000EB4100B0F8B800FEF72DFD41ECCC
:101C4000100B42F67060C2F20000129080ED000BA3
:101C500090ED000B1FEDC61B53EC112B51EC100B3C
:101C6000FEF715FB0246129811920A46119942ECB2
:101C7000101B80ED000B90ED000B1FEDCD1B53EC06
:101C8000112B51EC100BFEF71BFC0246129813921D
:101C90000A46139942EC101B80ED000B90ED000BEF
:101CA00053EC102B42F67810C2F2000014904BF265
:101CB000F661C0F6020118F097FE149942F68C10F6
:101CC000C2F2000015900522FEF7C4FA15984BF2F7
:101CD0003A61C0F602010122FEF7BCFAFFE74D9817
:101CE00001304D909CE700BF000000000000F03F75
:101CF000000000000000594040F6A840C2F2000079
:101D00000390B0F89C2042F67810C2F200000C90CC
:101D10004BF2CC61C0F60201049118F065FE0C99FB
:101D200042F68C10C2F20000109004220592FEF7D9
:101D300091FA10984BF23A61C0F602010E9101221D
:101D40000F92FEF787FA039A04990C98B2F8A02034
:101D500018F04AFE059A0C991098FEF77BFA0E9936
:101D60000F9A1098FEF776FA039A04990C98B2F835
:101D7000A42018F039FE059A0C991098FEF76AFA1B
:101D80000E990F9A1098FEF765FA039A04990C9829
:101D9000B2F8982018F028FE059A0C991098FEF7D2
:101DA00059FA0E990F9A1098FEF754FA0C981FEDF5
:101DB000320B53EC102B4BF2F661C0F602010B9183
:101DC00018F012FE059A0C991098FEF743FA0E9936
:101DD0000F9A1098FEF73EFA42F6D000C2F20000C9
:101DE0000A9090ED100B51EC100B1FED3F0B53ECD4
:101DF000102B07930692FEF763FB02460C980B46E6
:101E00000B9943EC102B53EC102B18F0EDFD0C99B3
:101E1000109805220D92FEF71DFA0E990F9A109850
:101E2000FEF718FA069A079B0A9890ED0E0B51ECF4
:101E3000100BFEF745FB02460C980B460B9943EC42
:101E4000102B53EC102B18F0CFFD0C990D9A109815
:101E5000FEF700FA0E990F9A1098FEF7FBF9069A12
:101E6000079B0A9890ED120B51EC100BFEF728FB24
:101E700002460C980B460B9943EC102B53EC102B9D
:101E800018F0B2FD0C990D9A1098FEF7E3F90E992F
:101E90000F9A1098FEF7DEF9069A079B0A9890EDC4
:101EA000160B51EC100BFEF70BFB02460C980B4681
:101EB0000B9943EC102B53EC102B18F095FD0C995B
:101EC0000D9A1098FEF7C6F90E990F9A1098FEF722
:101ED000C1F9069A079B0A9890ED140B51EC100B70
:101EE000FEF7EEFA02460C980B460B9943EC102BCA
:101EF00053EC102B18F078FD0C990D9A1098FEF702
:101F0000A9F90E990F9A1098FEF7A4F9069A079B63
:101F10000A9890ED180B51EC100BFEF7D1FA02461F
:101F20000C980B460B9943EC102B53EC102B18F02C
:101F30005BFD0C990D9A1098FEF78CF90E990F9A8B
:101F40001098FEF787F9069A079B0A9890ED200BE8
:101F500051EC100BFEF7B4FA02460C980B460B99A5
:101F600043EC102B53EC102B18F03EFD0C990D9AFE
:101F70001098FEF76FF90E990F9A1098FEF76AF90C
:101F8000069A079B0A9890ED240B51EC100BFEF774
:101F900097FA02460C980B460B9943EC102B53EC26
:101FA000102B18F021FD0C990D9A1098FEF752F99C
:101FB0000E990F9A1098FEF74DF9069A079B0A980A
:101FC00090ED1A0B51EC100BFEF77AFA02460C98C2
:101FD0000B460B9943EC102B53EC102B18F004FD1F
:101FE0000C990D9A1098FEF735F90E990F9A1098E2
:101FF000FEF730F9069A079B0A9890ED1C0B51ECFE
:10200000100BFEF75DFA02460C980B460B9943EC59
:10201000102B53EC102B18F0E7FC0C990D9A10982C
:10202000FEF718F90E990F9A1098FEF713F90A980F
:1020300090ED000B51EC100B9FEDC10B53EC102BEE
:1020400009930892FEF73CFA02460C980B460B994E
:1020500043EC102B53EC102B18F0C6FC0C990D9A86
:102060001098FEF7F7F80E990F9A1098FEF7F2F80D
:10207000089A099B0A9890ED020B51EC100BFEF7A1
:102080001FFA02460C980B460B9943EC102B53ECAD
:10209000102B18F0A9FC0C990D9A1098FEF7DAF89D
:1020A0000E990F9A1098FEF7D5F8089A099B0A988E
:1020B00090ED040B51EC100BFEF702FA02460C985F
:1020C0000B460B9943EC102B53EC102B18F08CFCA7
:1020D0000C990D9A1098FEF7BDF80E990F9A10986A
:1020E000FEF7B8F8089A099B0A9890ED060B51EC98
:1020F000100BFEF7E5F902460C980B460B9943ECE2
:10210000102B53EC102B18F06FFC0C990D9A1098B3
:10211000FEF7A0F80E990F9A1098FEF79BF8089A10
:10212000099B0A9890ED080B51EC100BFEF7C8F9CB
:1021300002460C980B460B9943EC102B53EC102BDA
:1021400018F052FC0C990D9A1098FEF783F80E992E
:102150000F9A1098FEF77EF8089A099B0A9890ED5E
:102160000A0B51EC100BFEF7ABF902460C980B462C
:102170000B9943EC102B53EC102B18F035FC0C99F9
:102180000D9A1098FEF766F80E990F9A1098FEF7C0
:1021900061F810984BF23761C0F602010222FEF797
:1021A00059F8FFE740F23840C2F200000022027006
:1021B00040F27040C2F2000040F2A061C2F20001A1
:1021C00011F024F9002840F0B680FFE741F61460D2
:1021D000C2F2000040F25411C2F2000111F03EFBC5
:1021E00038B1FFE740F25410C2F2000011F010F8CD
:1021F00098E042F6B800C2F200000078C00710BBB9
:10220000FFE742F6B801C2F200010120087040F277
:102210000820C2F2000040F27011C2F20001322226
:1022200011F046F938B9FFE740F21911C2F2000186
:102230000120087006E040F21911C2F200010020EE
:102240000870FFE721E042F6B801C2F20001002069
:10225000087040F20820C2F2000040F28211C2F27F
:102260000001322211F024F938B9FFE740F21911C8
:10227000C2F200010120087006E040F21911C2F21A
:10228000000100200870FFE7FFE740F21910C2F2DA
:1022900000000078C007002843D0FFE740F2384034
:1022A000C2F200000078C007F0B1FFE742F6846098
:1022B000C2F2000002904BF2F441C0F6020118F0A5
:1022C00093FB0298FDF7BFFF0299024640F20820F7
:1022D000C2F2000042F68063C2F2000311F0BAFBC2
:1022E00008B9FFE7FFE7FFE742F68C10C2F20000F3
:1022F0000190FDF7A8FF0199024640F20820C2F2C2
:10230000000042F68063C2F2000311F0A3FB08B99B
:10231000FFE7FFE740F20820C2F2000010F04EFF96
:10232000FFE7FFE74BF23B71C0F6020100221046C7
:1023300011F06CF8FFE75AB080BD00BF00BF00BFCE
:10234000000000000000244085B0039002910020AE
:102350000190FFE7039890F83C00012804D1FFE7C3
:1023600002208DF81300F7E00399012081F83C006A
:10237000FFE7FFE7029800680A281CD3FFE70298EE
:10238000008800EB4000A0F11E01072000FA01F2D6
:1023900003980168C8689043C860029988680988F2
:1023A00001EB41011E3900FA01F203980168C86887
:1023B0001043C86018E00298008800EB4001072035
:1023C00000FA01F2039801680869904308610299D4
:1023D0008868098801EB410100FA01F2039801685D
:1023E000086910430861FFE70298406806281BD877
:1023F000FFE70298406800EB8000411F1F2000FAB1
:1024000001F203980168486B904348630299088879
:10241000496801EB8101053900FA01F2039801686E
:10242000486B104348633DE0029840680C281CD874
:10243000FFE70298406800EB8000A0F123011F2015
:1024400000FA01F203980168086B9043086302994F
:102450000888496801EB8101233900FA01F20398E9
:102460000168086B104308631BE00298406800EBAA
:102470008000A0F141011F2000FA01F203980168D9
:10248000C86A9043C86202990888496801EB8101D3
:10249000413900FA01F203980168C86A1043C86222
:1024A000FFE7FFE742F20030C4F20100009003981A
:1024B000006842F20001C4F2010188420BD1FFE73B
:1024C00002980068122806D1FFE70099486840F496
:1024D00080004860FFE70398006842F20001C4F200
:1024E000010188422ED1FFE702980068102805D02C
:1024F000FFE702980068112824D1FFE70099486897
:1025000040F40000486002980068102819D1FFE7E5
:1025100040F22400C2F2000000684DF68361C4F26C
:102520001B31A0FB0110800C00EB800040000190EB
:10253000FFE7019820B1FFE7019801380190F8E723
:10254000FFE7FFE7FFE70399002081F83C00FFE782
:1025500000208DF81300FFE79DF8130005B07047C9
:1025600081B0009000980068C06C01B07047000016
:1025700080B584B0029000208DF80700029820B941
:10258000FFE701208DF80F0042E00298806A0121E8
:10259000C0F60071884201D0FFE7FFE70298006CA7
:1025A00050B9FFE7029800F037F80299002048641C
:1025B000029981F83C00FFE70298006CC0060028F1
:1025C00017D4FFE70298006C40F0020020F4885016
:1025D000029908640298FEF791F902990020486474
:1025E0000298006C40F0010020F00200029908649B
:1025F00003E001208DF80700FFE7FFE702990020C4
:1026000081F83C00FFE79DF807008DF80F00FFE719
:102610009DF80F0004B080BD80B58EB00D900020F5
:102620000C900B900A90099008900D98006842F267
:102630000001C4F2010188426DD1FFE7FFE70020ED
:10264000079043F64400C4F20200016841F480712F
:102650000160006800F4807007900798FFE7FFE7CB
:102660000020069043F63000C4F20200016841F0F9
:1026700004010160006800F0040006900698FFE77E
:10268000FFE70020059043F63000C4F20200016825
:1026900041F001010160006800F00100059005981B
:1026A000FFE7FFE70020049043F63000C4F2020089
:1026B000016841F002010160006800F0020004902E
:1026C0000498FFE73F200890032001900990002024
:1026D00002900A9040F60000C4F2020008A903919B
:1026E00000F082FD019A02980399FF230893099252
:1026F0000A900020C4F2020000F076FD019A0298D0
:102700000399089209920A9040F20040C4F2020034
:1027100000F06AFDFFE70EB080BD000080B584B018
:1027200002900191002000900298006880684005A6
:10273000002816D5FFE7029800688068C0050028C9
:102740000FD5FFE70299086C40F020000864FFE70E
:102750000299002081F83C00FFE701208DF80F006E
:102760006DE000F04DFF0090FFE702980068006800
:1027700000F00200022829D0FFE70198013020B3C1
:10278000FFE7019840B1FFE700F03AFF0099401AD7
:102790000199884218D9FFE702980068006800F0A4
:1027A000020002280FD0FFE70299086C40F00400F5
:1027B0000864FFE70299002081F83C00FFE703204E
:1027C0008DF80F003BE0FFE7FFE7CEE702980168D6
:1027D0006FF0120008600299086C40F40070086401
:1027E00002980068806810F0405F24D1FFE70298EB
:1027F000007E00BBFFE702980068C06A10F4700F0B
:1028000007D0FFE70298006880684005002812D4CE
:10281000FFE70299086C20F4807008640298006C4D
:10282000C004002806D4FFE70299086C40F00100BC
:102830000864FFE7FFE700208DF80F00FFE79DF831
:102840000F0004B080BD000084B002900020019011
:10285000FFE7029890F83C00012804D1FFE702202E
:102860008DF80F00D6E00299012081F83C00FFE7C7
:10287000FFE702980068806800F0010001281ED080
:10288000FFE702980168886840F00100886040F224
:102890002400C2F2000000684DF68361C4F21B31CF
:1028A000A0FB0110800C00EB40000190FFE70198B5
:1028B00020B1FFE7019801380190F8E7FFE702989F
:1028C00000688068C007002800F09580FFE7029844
:1028D000006C40F4807040F2016188430299086402
:1028E0000298006840684005002809D5FFE7029873
:1028F000006C40F4805020F4005002990864FFE717
:102900000298006CC004002806D5FFE70299486CC5
:1029100020F00600486403E0029900204864FFE7C5
:10292000FFE70299002081F83C00FFE742F2003007
:10293000C4F201000090029801686FF02200086064
:1029400000984068C006E8BBFFE70298006842F2C2
:102950000001C4F20101884224D0FFE70298006818
:1029600042F20011C4F20101884208D1FFE742F2AD
:102970000430C4F201000068C00698B1FFE7029875
:10298000006842F20021C4F20101884219D1FFE738
:1029900042F20430C4F20100006800F01F000F286A
:1029A0000FD8FFE702980068806810F0405F07D1F9
:1029B000FFE702980168886840F080408860FFE780
:1029C000FFE717E00298006842F20001C4F201013B
:1029D00088420ED1FFE702980068806810F0405FDF
:1029E00007D1FFE702980168886840F0804088605E
:1029F000FFE7FFE70AE00299086C40F01000086466
:102A00000299486C40F001004864FFE700208DF80F
:102A10000F00FFE79DF80F0004B0704787B00590E6
:102A20000491039200208DF80B00059818B1FFE780
:102A3000049820B9FFE701208DF81B0049E0FFE76B
:102A400005984079012804D1FFE702208DF81B008A
:102A50003FE0059901204871FFE7FFE70599022053
:102A600008710598006800680190039800F0100153
:102A700040F6FE7000FA01F1019888430190049934
:102A800008684968084300900098039901F0100114
:102A900000FA01F10198084301900198059909682D
:102AA0000860039800F01001C02000FA01F20598B8
:102AB0000168086890430860059901200871FFE7E4
:102AC000059900204871FFE79DF80B008DF81B0069
:102AD000FFE79DF81B0007B07047000080B582B08B
:102AE0000090009820B9FFE701208DF8070016E05C
:102AF0000098007938B9FFE70099002048710098E4
:102B000000F012F8FFE700990220087100990020F8
:102B10000861009A012111718DF80700FFE79DF807
:102B2000070002B080BD000080B588B0079000208B
:102B3000069005900490039002900798006847F271
:102B40000041C4F2000188422FD1FFE7FFE70020D7
:102B5000019043F64000C4F20200016841F00051C8
:102B60000160006800F0005001900198FFE7FFE766
:102B70000020009043F63000C4F20200016841F0EA
:102B800001010160006800F0010000900098FFE77B
:102B90003020029003200390002004900020C4F213
:102BA000020002A900F020FBFFE708B080BD000092
:102BB00086B0049003910292019300200090049843
:102BC00020B9FFE701208DF8170018E0049800688D
:102BD0000090039830B9FFE7029800990844083044
:102BE000009005E002980099084414300090FFE737
:102BF00001980099086000208DF81700FFE79DF804
:102C0000170006B07047000083B001900091019852
:102C100020B9FFE701208DF80B0050E0FFE7019895
:102C20004079012804D1FFE702208DF80B0046E02F
:102C3000019901204871FFE7FFE70199022008711F
:102C4000009800F01001012000FA01F201980168DB
:102C5000086810430860009880B9FFE70198006891
:102C6000006800F03C003C2807D1FFE701980168AC
:102C7000486840F001004860FFE714E001980068F0
:102C8000006800F47010009901F010023C2191409E
:102C9000884207D1FFE701980168486840F00200C8
:102CA0004860FFE7FFE7019901200871FFE70199FC
:102CB00000204871FFE700208DF80B00FFE79DF82A
:102CC0000B0003B07047000080B584B002900298FA
:102CD000806D019000F094FC0090029890F835000F
:102CE00002280DD0FFE7029980204865FFE702998E
:102CF000002081F83400FFE701208DF80F0055E037
:102D000002980168086820F01600086002980168BF
:102D1000486920F0800048610298006C20B9FFE704
:102D20000298806C38B1FFE702980168086820F0CB
:102D300008000860FFE702980168086820F00100B9
:102D40000860FFE7029800680068C007C8B1FFE7A5
:102D500000F056FC0099401A062811D3FFE70299AB
:102D6000202048650299032081F83500FFE7029989
:102D7000002081F83400FFE703208DF80F0015E0F4
:102D8000E0E70298C16D3F20884001998860029970
:102D9000012081F83500FFE70299002081F8340016
:102DA000FFE7FFE700208DF80F00FFE79DF80F0019
:102DB00004B080BD82B00090009890F835000228E1
:102DC00007D0FFE700998020486501208DF80700B3
:102DD0000EE00099052081F8350000980168086828
:102DE00020F001000860FFE700208DF80700FFE7F2
:102DF0009DF8070002B0704780B584B0039000F0E2
:102E0000FFFB0290039801900198013048B1FFE761
:102E100040F20010C2F200000178019808440190CD
:102E2000FFE7FFE700F0ECFB0299401A01998842A6
:102E300001D2FFE7F6E704B080BD000043F6104181
:102E4000C4F20201086840F00040086000207047AA
:102E500080B588B0069005910393029201208DF809
:102E60000700FFE742F64800C2F20000007E01289A
:102E700004D1FFE702208DF81F0051E042F648011F
:102E8000C2F2000101200876FFE7FFE74CF2503064
:102E9000FEF798FA8DF807009DF8070098BBFFE74A
:102EA000069830B9FFE705989DF80810FEF7A8F9D5
:102EB0001AE00698012806D1FFE70598BDF808102A
:102EC000FEF7D4F90FE00698022805D1FFE7059830
:102ED0000299FEF7E5F905E00598029A039BFEF7D3
:102EE000A7F9FFE7FFE7FFE74CF25030FEF76AFA79
:102EF0008DF8070043F61041C4F20201086820F083
:102F000001000860FFE7FFE742F64801C2F2000156
:102F100000200876FFE79DF807008DF81F00FFE707
:102F20009DF81F0008B080BD81B000208DF803001F
:102F300043F61040C4F202000068C00FD8B1FFE7AA
:102F400043F60441C4F2020140F22310C4F2675078
:102F5000086048F6AB10CCF6EF50086043F610401E
:102F6000C4F202000068C00F20B1FFE701208DF815
:102F70000300FFE7FFE79DF8030001B07047000082
:102F80008EB00D900C9100200A90099008900B9043
:102F9000FFE70B980F2800F20381FFE70B99012050
:102FA00088400A900C980A990840099009980A9953
:102FB000884240F0F080FFE70B9820F0030043F6D2
:102FC0000801C4F20101405808900B9800F003007A
:102FD00081000F2000FA01F1089808400890089835
:102FE00007900D980021C4F20201884203D1FFE747
:102FF000002006905EE00D9840F20041C4F202010C
:10300000884203D1FFE70120059050E00D9840F67B
:103010000001C4F20201884203D1FFE702200490BC
:1030200042E00D9840F60041C4F20201884203D10B
:10303000FFE70320039034E00D9841F20001C4F251
:103040000201884203D1FFE70420029026E00D9898
:1030500041F20041C4F20201884203D1FFE705209A
:10306000019018E00D9841F60001C4F20201884277
:1030700003D1FFE7062000900AE00D9941F60042D7
:10308000C4F202020820914208BF07200090FFE727
:1030900000980190FFE701980290FFE702980390E3
:1030A000FFE703980490FFE704980590FFE7059871
:1030B0000690FFE707980699C9B20B9A02F003023F
:1030C00092009140884233D1FFE7099A43F60041CC
:1030D000C4F20101086890430860099A43F604416C
:1030E000C4F20101086890430860099A43F60C4154
:1030F000C4F20101086890430860099A43F6084148
:10310000C4F201010868904308600B9800F00300C6
:1031100081000F2088400890089B0B9820F0030145
:1031200043F60802C4F20102885898438850FFE72A
:103130000B984100032000FA01F30D9A116899439E
:103140001160DDF82CC00CF007018A000F2101FA94
:1031500002F30D996FF0030202EA5C020A44116A5D
:10316000994311620B99490000FA01F30D9AD16855
:103170009943D1600B9A012101FA02F30D9A51682B
:10318000994351600B99490000FA01F20D99886842
:1031900090438860FFE7FFE70B9801300B90F8E65B
:1031A0000EB0704781B0ADF8020001B0704700006A
:1031B00080B582B0ADF8060043F61440C4F20100B9
:1031C0000068BDF8061008420CD0FFE7BDF8060005
:1031D00043F61441C4F201010860BDF80600FFF790
:1031E000E1FFFFE702B080BD8EB00D900C91002092
:1031F0000A90099008900B90FFE70B980F2800F2B7
:10320000CC81FFE70B99012088400A900C98006858
:103210000A990840099009980A99884240F0B881B3
:10322000FFE70C98406800F00300012807D0FFE793
:103230000C98406800F0030002282FD1FFE70D989A
:10324000806808900B984100032000FA01F108986B
:10325000884308900C98C0680B99490000FA01F166
:1032600008980843089008980D9988600D98406860
:1032700008900B99012000FA01F108988843089002
:103280000C984068C0F300100B9900FA01F10898FF
:103290000843089008980D994860FFE70C9840682B
:1032A00000F00300032818D0FFE70D98C0680890CD
:1032B0000B984100032000FA01F108988843089018
:1032C0000C9880680B99490000FA01F108980843AE
:1032D000089008980D99C860FFE70C98406800F0C6
:1032E0000300022826D1FFE70D980B996FF0030227
:1032F00002EA51010844006A08900B9800F00700A8
:1033000081000F2000FA01F10898884308900C987A
:1033100000690B9901F00701890000FA01F1089892
:103320000843089008980D990B9B02EA5302114438
:103330000862FFE70D98006808900B984100032091
:1033400000FA01F10898884308900C98406800F052
:1033500003000B99490000FA01F10898084308900E
:1033600008980D9908600C9880798007002800F073
:103370000E81FFE7FFE70020079043F64400C4F208
:103380000200016841F480410160006800F480405F
:1033900007900798FFE70B9820F0030043F6080119
:1033A000C4F20101405808900B9800F0030081001E
:1033B0000F2000FA01F10898884308900D98002129
:1033C000C4F20201884203D1FFE7002006905EE0CC
:1033D0000D9840F20041C4F20201884203D1FFE798
:1033E0000120059050E00D9840F60001C4F2020162
:1033F000884203D1FFE70220049042E00D9840F696
:103400000041C4F20201884203D1FFE70320039088
:1034100034E00D9841F20001C4F20201884203D168
:10342000FFE70420029026E00D9841F20041C4F22B
:103430000201884203D1FFE70520019018E00D98B2
:1034400041F60001C4F20201884203D1FFE70620E1
:1034500000900AE00D9941F60042C4F202020820F1
:10346000914208BF07200090FFE700980190FFE716
:1034700001980290FFE702980390FFE703980490F9
:10348000FFE704980590FFE705980690FFE7069888
:10349000C0B20B9901F00301890000FA01F108980C
:1034A0000843089008980B9921F0030143F608029D
:1034B000C4F20102885043F60840C4F201000068DB
:1034C000089009990898884308900C988079C0065C
:1034D000002805D5FFE70999089808430890FFE7F9
:1034E000089843F60841C4F20101086043F60C4015
:1034F000C4F2010000680890099908988843089070
:103500000C9880798006002805D5FFE7099908986E
:1035100008430890FFE7089843F60C41C4F2010104
:10352000086043F60440C4F201000068089009995D
:103530000898884308900C9880798007002805D562
:10354000FFE70999089808430890FFE7089843F6B1
:103550000441C4F20101086043F60040C4F20100D6
:103560000068089009990898884308900C98807919
:10357000C00728B1FFE70999089808430890FFE7BA
:10358000089843F60041C4F201010860FFE7FFE735
:10359000FFE70B9801300B902FE60EB0704700004C
:1035A00082B00190ADF8021001980069BDF80210D8
:1035B000084204D0FFE701208DF8010003E000205D
:1035C0008DF80100FFE79DF8010002B07047000090
:1035D00082B00190ADF802108DF801209DF8010035
:1035E00028B1FFE7BDF802000199886105E0BDF848
:1035F0000200000401998861FFE702B070470000F3
:1036000042F66460C2F200000068704780B58EB078
:103610000C900C9820B9FFE701208DF8370043E1AA
:103620000C9890F83D0040B9FFE70C99002081F814
:103630003C000C9800F05CFCFFE70C99242081F81A
:103640003D000C980168086820F0010008600C98A3
:103650000168086840F4004008600C980168086838
:1036600020F40040086002F055FA0A900C98406877
:1036700048F2A061C0F2010188420BD8FFE70A9925
:1036800048F28042C0F21E020020914238BF012061
:1036900009900AE00A9940F60012C0F23D020020AB
:1036A000914238BF01200990FFE70998012804D111
:1036B000FFE701208DF83700F6E00A984DF68361A8
:1036C000C4F21B31A0FB0110800C0B900C98006819
:1036D000406820F03F000B9908430C990968486046
:1036E0000C980068006A20F03F0008900C98406831
:1036F00048F2A061C0F20101884204D8FFE70B98AC
:10370000013007900EE00B984FF49671484344F651
:10371000D351C1F26201A0FB0101012000EB911025
:103720000790FFE70898079908430C990968086211
:103730000C980068C0694CF6FF71884306900C989D
:10374000406848F2A061C0F2010188421FD8FFE73B
:103750000A9801380C9949684900B0FBF1F0013032
:103760006FF31F30032803D8FFE7042005900BE018
:103770000A9801380C9949684900B0FBF1F0013012
:103780006FF31F300590FFE7059804904CE00C980C
:10379000806868B9FFE70A9801380C99496801EB1D
:1037A0004101B0FBF1F001306FF31F3003900DE0E9
:1037B0000A9801380C99496819225143B0FBF1F07D
:1037C0000130042161F31F300390FFE703980005E7
:1037D00018B9FFE70120029023E00C98806868B9CF
:1037E000FFE70A9801380C99496801EB4101B0FBE9
:1037F000F1F001306FF31F3001900DE00A980138AD
:103800000C99496819225143B0FBF1F001300421B1
:1038100061F31F300190FFE7019840F400400290EF
:10382000FFE702980490FFE70698049908430C9973
:103830000968C8610C980068006820F0C0000C9B03
:103840001968DA691B6A1A43104308600C9800680B
:10385000806848F2FF3188430C9A1168D368126976
:103860001A43104388600C980068C06820F0FF007D
:103870000C9B19685A699B691A431043C8600C98DD
:103880000168086840F0010008600C990020086495
:103890000C9A202182F83D100C9908630C9981F84C
:1038A0003E008DF83700FFE79DF837000EB080BD71
:1038B00080B58CB0DDF838C00A90ADF826100892BB
:1038C000ADF81E30FFF79CFE06900A9890F83D0078
:1038D000202840F0FE81FFE70A9806996A461160A9
:1038E0000221C0F210010122192305F043FC20B18E
:1038F000FFE702208DF82F00EFE1FFE70A9890F82C
:103900003C00012804D1FFE702208DF82F00E4E1FC
:103910000A99012081F83C00FFE7FFE70A98006858
:10392000006800F00100012807D0FFE70A9801684D
:10393000086840F001000860FFE70A98016808681D
:1039400020F4006008600A99222081F83D000A995D
:10395000102081F83E000A990020086408980A990E
:103960004862BDF81E000A9948850A98408D0A9958
:1039700008850A990020CFF6FF70C8620A98BDF842
:1039800026100E9A069B05F03FFA20B1FFE70120B2
:103990008DF82F00A1E10A98008DA0B9FFE7FFE79D
:1039A000002005900A980068406905900A98006810
:1039B000806905900598FFE70A980168086840F457
:1039C0000070086053E00A98008D01281AD1FFE7C3
:1039D0000A980168086820F480600860FFE700200A
:1039E00004900A980068406904900A980068806909
:1039F00004900498FFE70A980168086840F4007092
:103A0000086033E00A98008D02281AD1FFE70A986F
:103A10000168086820F4806008600A9801680868F6
:103A200040F400600860FFE7002003900A980068F7
:103A3000406903900A980068806903900398FFE743
:103A400013E00A980168086840F480600860FFE7A6
:103A5000002002900A980068406902900A98006865
:103A6000806902900298FFE7FFE7FFE7FFE7FFE7C3
:103A70000A98008D002800F01A81FFE70A98008D4F
:103A8000032800F2CC80FFE70A98008D01281ED1A0
:103A9000FFE70A980E99069A05F09AFC20B1FFE715
:103AA00001208DF82F0018E10A98006800690A9932
:103AB000496A08700A99486A013048620A99088D73
:103AC000013808850A99488D01384885A6E00A988A
:103AD000008D02283CD1FFE70A980E9B06996A46A2
:103AE00011600421C0F20101002205F043FB20B166
:103AF000FFE701208DF82F00EFE00A9801680868C1
:103B000040F4007008600A98006800690A99496AE0
:103B100008700A99486A013048620A99088D01388C
:103B200008850A99488D013848850A980068006917
:103B30000A99496A08700A99486A013048620A99E4
:103B4000088D013808850A99488D0138488564E058
:103B50000A980E9B06996A4611600421C0F2010181
:103B6000002205F007FB20B1FFE701208DF82F00B0
:103B7000B3E00A980168086820F4806008600A9839
:103B8000006800690A99496A08700A99486A013010
:103B900048620A99088D013808850A99488D0138CC
:103BA00048850A980E9B06996A4611600421C0F266
:103BB0000101002205F0DEFA20B1FFE701208DF8B7
:103BC0002F008AE00A980168086840F400700860D5
:103BD0000A98006800690A99496A08700A99486A4F
:103BE000013048620A99088D013808850A99488D84
:103BF000013848850A98006800690A99496A08707E
:103C00000A99486A013048620A99088D0138088586
:103C10000A99488D01384885FFE7FFE746E00A9892
:103C20000E99069A05F0D4FB20B1FFE701208DF82C
:103C30002F0052E00A98006800690A99496A0870E2
:103C40000A99486A013048620A99088D0138088546
:103C50000A99488D013848850A980068406900F043
:103C600004010120B0EB910F1FD1FFE70A98008DEE
:103C7000032807D1FFE70A980168086820F48060EC
:103C80000860FFE70A98006800690A99496A0870A5
:103C90000A99486A013048620A99088D01380885F6
:103CA0000A99488D01384885FFE7FFE7E0E60A9961
:103CB000202081F83D000A99002081F83E00FFE7AE
:103CC0000A99002081F83C00FFE700208DF82F00C2
:103CD00003E002208DF82F00FFE79DF82F000CB0C5
:103CE00080BD000080B588B0DDF828C00690ADF832
:103CF00016100492ADF80E30FFF782FC0290069881
:103D000090F83D00202840F0EB80FFE706980299EC
:103D10006A4611600221C0F210010122192305F048
:103D200029FA20B1FFE702208DF81F00DCE0FFE751
:103D3000069890F83C00012804D1FFE702208DF896
:103D40001F00D1E00699012081F83C00FFE7FFE762
:103D500006980068006800F00100012807D0FFE71E
:103D600006980168086840F001000860FFE70698BF
:103D70000168086820F4006008600699212081F835
:103D80003D000699102081F83E0006990020086445
:103D9000049806994862BDF80E0006994885069871
:103DA000408D0699088506990020CFF6FF70C862FD
:103DB0000698BDF816100A9A029B05F0FBF820B190
:103DC000FFE701208DF81F008EE0FFE70020019043
:103DD0000698006840690190069800688069019023
:103DE0000198FFE7FFE70698008D002860D0FFE705
:103DF00006980A99029A05F059FB80B1FFE70698E8
:103E0000006C042807D1FFE706980168086840F4B1
:103E100000700860FFE701208DF81F0064E006983D
:103E20000168406A007808610699486A0130486272
:103E30000699488D013848850699088D013808850E
:103E400006980068406900F004010120B0EB910F72
:103E500016D1FFE70698008D90B1FFE7069801683C
:103E6000406A007808610699486A013048620699FC
:103E7000488D013848850699088D01380885FFE787
:103E800006980A99029A05F01FF980B1FFE7069893
:103E9000006C042807D1FFE706980168086840F421
:103EA00000700860FFE701208DF81F001CE09AE712
:103EB00006980168086840F40070086006992020A0
:103EC00081F83D000699002081F83E00FFE7069941
:103ED000002081F83C00FFE700208DF81F0003E080
:103EE00002208DF81F00FFE79DF81F0008B080BD7D
:103EF00080B588B00790002006900590049003904C
:103F000002900798006845F60001C4F2000188425B
:103F100035D1FFE7FFE70020019043F63000C4F2FF
:103F20000200016841F002010160006800F0020037
:103F300001900198FFE74FF4406002901220039037
:103F400000200490032005900420069040F20040D9
:103F5000C4F2020002A9FFF747F9FFE70020009032
:103F600043F64000C4F20200016841F480010160A0
:103F7000006800F4800000900098FFE7FFE708B0B9
:103F800080BD000040F20010C2F20000027842F64C
:103F90006461C2F2000108681044086070470000C4
:103FA00080B543F60041C4F20201086840F4007095
:103FB0000860086840F480600860086840F4807019
:103FC0000860032000F094F80F2000F005F800F0DE
:103FD0003BF8002080BD000080B582B0009040F228
:103FE0002400C2F20000006840F20011C2F2000199
:103FF0000A784FF47A71B1FBF2F1B0FBF1F003F003
:1040000061FB20B1FFE701208DF8070018E0009860
:104010000F280DD8FFE700994FF0FF30002200F085
:104020004DF8009840F20411C2F20001086003E06C
:1040300001208DF8070003E000208DF80700FFE75E
:104040009DF8070002B080BD82B0FFE7002001901C
:1040500043F64400C4F20200016841F4804101606B
:10406000006800F4804001900198FFE7FFE700201E
:10407000009043F64000C4F20200016841F0805114
:104080000160006800F0805000900098FFE702B0E7
:104090007047000080B582B08DF807009DF90700D9
:1040A0000BF004FD02B080BD80B582B08DF8070032
:1040B0009DF907000BF016FD02B080BD80B586B0FB
:1040C0008DF8170004910392002002900BF022FD5E
:1040D00002909DF91700019002980499039A05F047
:1040E0001DFE014601980BF01DFD06B080BD0000CD
:1040F00080B582B0019001980BF036FD02B080BD12
:1041000082B001908DF8031002B0704782B0019028
:10411000ADF80210BDF8020001990968486200205C
:1041200002B0704784B003908DF80B10ADF80820F2
:1041300003980068406A00909DF80B0048B9FFE7BB
:10414000BDF80810009840EA0140039909688862A8
:1041500033E003980068816A009800EB11400090FA
:1041600000208DF80700FFE79DF807009DF80B1071
:104170000139884213D2FFE7039800689DF80710C1
:1041800000EB8100D0F80411009800EB1140009082
:10419000FFE79DF8070001308DF80700E4E7BDF860
:1041A0000810009840EA0140039909689DF80B2027
:1041B00001EB8201C1F80001FFE7002004B0704765
:1041C00080B582B001900198D0F8E00409F040FA7F
:1041D00002B080BD80B582B001908DF80310019AC5
:1041E000D2F8E0049DF8031001EBC10302EB830257
:1041F000126A09F08BF802B080BD000080B582B071
:1042000001908DF80310019AD2F8E0049DF8031094
:1042100001EBC10302EB8302D2F8602209F03EF900
:1042200002B080BD80B582B001900198D0F8E00462
:1042300009F014FA02B080BD80B584B003908DF807
:104240000B109DF80B00000600280CD5FFE7039823
:104250009DF80B1001F00F0101EBC10100EB810093
:10426000143001900CE003989DF80B1001F00F0141
:1042700001EBC10100EB810000F515700190FFE733
:104280000398006801990AF095FF8DF80A009DF8DF
:104290000A0004B080BD000080B584B002908DF8A3
:1042A00007109DF80700000600280FD5FFE70298C9
:1042B0009DF8071001F00F0101EBC10100EB810037
:1042C000143000900099012048700FE002989DF88A
:1042D000071001F00F0101EBC10100EB810000F5B7
:1042E00015700090009900204870FFE79DF80700C6
:1042F00000F00F0000990870FFE7029890F894040E
:10430000012804D1FFE702208DF80F0014E0029984
:10431000012081F89404FFE7FFE702980068009904
:104320000AF038FAFFE70299002081F89404FFE7C9
:1043300000208DF80F00FFE79DF80F0004B080BD4E
:1043400080B584B002908DF807109DF8070000F04A
:104350000F0002990979884204D9FFE701208DF8FE
:104360000F004DE09DF80700000600280FD5FFE77D
:1043700002989DF8071001F00F0101EBC10100EB5D
:104380008100143000900099012048700FE00298DD
:104390009DF8071001F00F0101EBC10100EB810056
:1043A00000F515700090009900204870FFE7009913
:1043B000002088709DF8070000F00F000099087039
:1043C000FFE7029890F89404012804D1FFE7022047
:1043D0008DF80F0014E00299012081F89404FFE7A2
:1043E000FFE70298006800990AF044FCFFE7029991
:1043F000002081F89404FFE700208DF80F00FFE70C
:104400009DF80F0004B080BD82B001908DF80310BC
:1044100001989DF8031001F00F0101EBC10100EBC1
:104420008100D0F8680202B07047000080B586B005
:1044300004908DF80F10ADF80C208DF80B30002093
:104440008DF80A009DF80F00000600280FD5FFE741
:1044500004989DF80F1001F00F0101EBC10100EB72
:104460008100143001900199012048700FE00498F8
:104470009DF80F1001F00F0101EBC10100EB81006D
:1044800000F515700190019900204870FFE79DF834
:104490000F0000F00F0001990870BDF80C006FF3D9
:1044A000DF20019988609DF80B000199087101983F
:1044B000407820B1FFE7019908784883FFE79DF82D
:1044C0000B00022804D1FFE7019900204871FFE7A3
:1044D000FFE7049890F89404012804D1FFE7022034
:1044E0008DF8170015E00499012081F89404FFE786
:1044F000FFE70498006801990AF01EF8FFE70499A5
:10450000002081F89404FFE79DF80A008DF8170059
:10451000FFE79DF8170006B080BD000080B586B0AB
:1045200005908DF813100392029305989DF81310CF
:1045300001F00F0101EBC10100EB810000F51570E6
:10454000019003980199C860029801990861019946
:1045500000204861019948709DF8130000F00F0099
:104560000199087005988079012804D1FFE7039824
:104570000199C861FFE7059A1068019992790AF0DC
:104580001DFC002006B080BD80B584B002908DF87F
:1045900007109DF8070000F00F0002990979884282
:1045A00004D9FFE701208DF80F0058E09DF80700BF
:1045B000000600280FD5FFE702989DF8071001F0CC
:1045C0000F0101EBC10100EB810014300090009954
:1045D000012048700DE002989DF8071001EBC10121
:1045E00000EB810000F515700090009900204870E4
:1045F000FFE70099012088709DF8070000F00F0088
:1046000000990870FFE7029890F89404012804D1FB
:10461000FFE702208DF80F0021E00299012081F8C8
:104620009404FFE7FFE70298006800990AF072FB24
:104630009DF80700000740B9FFE7029A10689179DA
:1046400002F29C420AF0C6FAFFE7FFE70299002057
:1046500081F89404FFE700208DF80F00FFE79DF834
:104660000F0004B080BD000080B586B005908DF8C5
:1046700013100392029305989DF8131001F00F0197
:1046800001EBC10100EB8100143001900398019906
:10469000C860029801990861019900204861019958
:1046A000012048709DF8130000F00F000199087078
:1046B00005988079012804D1FFE703980199C86122
:1046C000FFE7059A1068019992790AF077FB0020BC
:1046D00006B080BD80B58CB00B900B9800680A9036
:1046E0000A9809900B9800680AF09AFE002840F09A
:1046F0000B84FFE70B9800680AF0FEFE10B9FFE795
:1047000000F002BC0998D0F80808C0F30D200B99FE
:10471000C1F8D4040B9800680AF0EEFE8007002868
:1047200007D5FFE70B980168486900F0020048616F
:10473000FFE70B9800680AF0DFFEC006002862D58C
:10474000FFE70B980168886920F0100088610A98DB
:10475000006A02900B98029901F00F0101EBC10170
:1047600000EB810000F515700890029800F4F0113C
:104770000220B0EB514F23D1FFE7BDF8080047F608
:10478000F07108421BD0FFE70A980899C968029A9D
:10479000C2F30A120AF0BEFE029847F6F07100EA70
:1047A0000103089AD06800EB1310D060029800EA69
:1047B00001020899486900EB12104861FFE71BE00D
:1047C000029800F4F0110620B0EB514F12D1FFE730
:1047D0000A980B9901F29C4108220AF09BFE02986C
:1047E00047F6F07100EA01020899486900EB1210DF
:1047F000486100E0FFE7FFE70B980168886940F037
:1048000010008861FFE70B9800680AF075FE00034E
:10481000002840F1A680FFE7002004900B98006874
:104820000AF018FE0690FFE70698002800F098802E
:10483000FFE79DF81800C007002800F08A80FFE716
:104840000B9800689DF810100AF03EFE05909DF848
:104850001400C00760B1FFE70998049900EB41110B
:104860000120C1F8080B0B98049905F0DBFAFFE76B
:104870009DF81400000700280CD5FFE7099804995B
:1048800000EB41110820C1F8080B0B98049905F0C2
:1048900083FAFFE79DF81400C006002808D5FFE75B
:1048A0000998049900EB41111020C1F8080BFFE7AB
:1048B0009DF81400800700282DD5FFE70A9840696D
:1048C0000006002808D5FFE70999D1F8040840F44C
:1048D0008060C1F80408FFE70B98049901EBC1015F
:1048E00000EB810000F5157008900898C078012849
:1048F00009D1FFE708990020C8700B989DF81010A7
:1049000000F012FBFFE70998049900EB4111022027
:10491000C1F8080BFFE79DF814008006002808D5B1
:10492000FFE70998049900EB41112020C1F8080B1A
:10493000FFE79DF815008006002809D5FFE70998D4
:10494000049900EB41114FF40050C1F8080BFFE748
:10495000FFE704980130049006984008069063E74A
:10496000FFE70B9800680AF0C7FD4003002840F1FC
:10497000C680FFE70B9800680AF05AFD06900020F9
:104980000490FFE70698002800F0B880FFE79DF844
:104990001800C007002800F0AA80FFE70B98006805
:1049A0009DF810100AF068FD05909DF81400C007EE
:1049B00000283ED0FFE7049800F00F01012000FA24
:1049C00001F10391039B099AD2F834189943C2F874
:1049D00034180999049A01EB4211C1F808090B989F
:1049E000807901281FD1FFE70B98049901EBC101E1
:1049F00000EB8101CA69086A10440862049888B90A
:104A0000FFE70B98049901EBC10100EB8100406ABC
:104A100040B9FFE70B99086801F29C4201210AF0B6
:104A2000D9F8FFE7FFE70B989DF81010FFF7D2FBCE
:104A3000FFE79DF814000007002808D5FFE7099854
:104A4000049900EB41110820C1F80809FFE79DF81F
:104A50001400C006002808D5FFE70998049900EB68
:104A600041111020C1F80809FFE79DF81400400625
:104A7000002808D5FFE70998049900EB4111402070
:104A8000C1F80809FFE79DF814008007002822D527
:104A9000FFE70A9804990AF05FFC0B98049901EB70
:104AA000C10100EB8100143008900898C0780128FB
:104AB00009D1FFE708990020C8700B989DF81010E5
:104AC00000F024FAFFE70998049900EB4111022055
:104AD000C1F80809FFE79DF814000006002805D575
:104AE000FFE70B98049905F081FAFFE7FFE70498C8
:104AF0000130049006984008069043E7FFE70B98C2
:104B000000680AF0F9FCC00F00B3FFE70999D1F87B
:104B1000040820F00100C1F804080B9890F8CC04B8
:104B2000012808D1FFE70B98002180F8CC140B98DE
:104B3000FFF7E6FA03E00B9800F0A8FBFFE70B98FD
:104B40000168486900F000404861FFE70B98006881
:104B50000AF0D2FC0005002811D5FFE70998D0F82B
:104B60000808C00720B1FFE70B9800F05FFCFFE7E3
:104B70000B980168486900F400604861FFE70B98F2
:104B800000680AF0B9FCC004002840F18680FFE705
:104B90000999D1F8040820F00100C1F804080B9825
:104BA000006810210AF0D8FB00200790FFE7079863
:104BB0000B990979884231D2FFE70998079900EBF0
:104BC00041114FF67F30C1F808090999079A01EBA6
:104BD0004212D2F8001921F40011C2F80019099903
:104BE000079A01EB4211C1F8080B0998079900EBED
:104BF0004111D1F8000B20F40010C1F8000B099806
:104C0000079900EB4111D1F8000B40F00060C1F8AA
:104C1000000BFFE7079801300790C8E70999D1F822
:104C20001C0840F00110C1F81C080B98C07B78B13B
:104C3000FFE70999D1F8840840F00B00C1F8840817
:104C40000999D1F8440840F00B00C1F844080FE07E
:104C50000999D1F8140842F22B021043C1F8140844
:104C60000999D1F8100840F00B00C1F81008FFE7CF
:104C70000999D1F8000820F4FE60C1F800080B9AE9
:104C80001068917902F29C4209F0A4FF0B98016828
:104C9000486900F480504861FFE70B9800680AF00B
:104CA0002BFC800400281FD5FFE70B98006809F053
:104CB000B3FC0B9800680AF08DFB0B99C8710B9838
:104CC0000068019000F020FF014601980B9AD2790C
:104CD0000AF018FD0B9800F0AFFA0B9801684869CC
:104CE00000F400504861FFE70B9800680AF004FCEC
:104CF000000700280AD5FFE70B9800F0D1FA0B98BF
:104D00000168486900F008004861FFE70B980068F7
:104D10000AF0F2FB0006002825D5FFE70A9988690A
:104D200020F08000886101200490FFE704980B992F
:104D30000979884216D2FFE70B98049901EBC1016B
:104D400000EB810090F85702012806D1FFE70B988D
:104D50009DF81010FFF770FAFFE7FFE704980130A5
:104D60000490E3E7FFE70B9800680AF0C5FBC00278
:104D700000283CD5FFE701200490FFE704980B9939
:104D8000097988422CD2FFE70998049900EB411079
:104D9000D0F8000902900B98049901EBC10100EBD7
:104DA0008100007E012816D1FFE79DF80B00000668
:104DB000002810D5FFE70B98049901EBC10100EB27
:104DC00081010120C8750B989DF8101041F08001F9
:104DD000FFF732FAFFE7FFE7049801300490CDE7D0
:104DE0000B980168486900F480104861FFE70B9850
:104DF00000680AF081FB8002002855D5FFE70120FA
:104E00000490FFE704980B990979884245D2FFE79F
:104E10000998049900EB4110D0F8000B02900B9810
:104E2000049901EBC10100EB810090F858020128C0
:104E30002ED1FFE79DF80B000006002828D5FFE7DC
:104E4000029800F480300B99D1F8D41401F00101DC
:104E500088421DD1FFE70B98049901EBC10100EBDB
:104E60008101012081F857020A99886940F0800089
:104E700088610A9840690006002808D4FFE709996C
:104E8000D1F8040840F40070C1F8040805E0FFE719
:104E9000FFE7049801300490B4E70B980168486973
:104EA00000F400104861FFE70B9800680AF024FB4B
:104EB000400000280AD5FFE70B98FFF781F90B980F
:104EC0000168486900F080404861FFE70B9800687E
:104ED0000AF012FB4007002815D5FFE70B98006881
:104EE000406802909DF808004007002804D5FFE7BD
:104EF0000B98FFF797F9FFE7029A0B98016848684B
:104F000010434860FFE7FFE70CB080BD80B582B07A
:104F100001908DF803100198D0F8E0049DF803107B
:104F200008F038FC02B080BD80B582B001908DF8E9
:104F300003100198D0F8E0049DF8031008F062FC1B
:104F400002B080BD80B58EB00C900C9820B9FFE700
:104F500001208DF8370012E10C9800680B900C9836
:104F600090F8950440B9FFE70C99002081F894046B
:104F70000C9800F009F9FFE70C99032081F89504DB
:104F80000B98B0F1A04F04D1FFE70C990020887175
:104F9000FFE70C98006809F013FE0C9B1868197C59
:104FA0008DF8241059689A68DB6808930792069177
:104FB0000699079A089BDDF824C0EE46CEF800C09B
:104FC00009F040FB40B1FFE70C99022081F89504FD
:104FD00001208DF83700D2E00C98006800210AF01B
:104FE000F3FA40B1FFE70C99022081F89504012003
:104FF0008DF83700C3E000208DF82B00FFE79DF807
:105000002B000C990979884241DAFFE70C989DF84A
:105010002B1001EBC10100EB8101012048759DF8C7
:105020002B000C9900EBC00201EB820108759DF882
:105030002B000C9900EBC00201EB8201C8850C9893
:105040009DF82B1001EBC10100EB810100200876D7
:105050000C999DF82B2002EBC20201EB8201C86182
:105060000C999DF82B2002EBC20201EB8201086231
:105070000C999DF82B2002EBC20201EB82014862E1
:10508000FFE79DF82B0001308DF82B00B7E70020DB
:105090008DF82B00FFE79DF82B000C9909798842C9
:1050A0003EDAFFE70C989DF82B1001EBC10100EBF5
:1050B0008101002081F855029DF82B100C9A01EB1C
:1050C000C10302EB830282F854120C999DF82B2045
:1050D00002EBC20201EB820181F858020C999DF8A3
:1050E0002B2002EBC20201EB8201C1F85C020C9999
:1050F0009DF82B2002EBC20201EB8201C1F8600295
:105100000C999DF82B2002EBC20201EB8201C1F841
:105110006402FFE79DF82B0001308DF82B00BAE701
:105120000C9B1868197C8DF8141059689A68DB6814
:105130000493039202910299039A049BDDF814C030
:10514000EE46CEF800C009F0EDFB40B1FFE70C9948
:10515000022081F8950401208DF837000FE00C99AA
:105160000020019048740C99012081F895040C9856
:10517000006809F0C1FB01988DF83700FFE79DF842
:1051800037000EB080BD000080B58AB009900020C5
:105190000890079006900590049009980068B0F177
:1051A000A04F47D1FFE7FFE70020039043F6300010
:1051B000C4F20200016841F001010160006800F0E2
:1051C000010003900398FFE74FF4C05004900220C1
:1051D000059000200690032007900A2008900020E8
:1051E000C4F2020004A9FDF7FFFFFFE743F6340114
:1051F000C4F20201086840F080000860FFE7002068
:10520000029043F64400C4F20200016841F4804178
:105210000160006800F4804002900298FFE7FFE719
:105220004320019000221146FEF748FF0198FEF747
:105230003BFFFFE70AB080BD80B582B0019001203E
:105240008DF803000198C07920B9FFE700208DF8A0
:1052500003000CE00198C079022804D1FFE7012087
:105260008DF8030002E0FBF73BFFFFE7FFE7019843
:10527000D0F8E0049DF8031008F0C4FB0198D0F8C2
:10528000E00408F03FFB02B080BD000080B582B0B2
:1052900001900198D0F8E00408F082FB02B080BDD4
:1052A00080B582B001900198D0F8E00408F08AFB44
:1052B00002B080BD80B584B002908DF80710FFE782
:1052C000029890F89404012804D1FFE702208DF899
:1052D0000F0019E00299012081F89404FFE7FFE72D
:1052E0009DF8070002994874029800689DF807101D
:1052F0000AF0DAF9FFE70299002081F89404FFE749
:1053000000208DF80F00FFE79DF80F0004B080BD6E
:1053100080B582B001900199D1F8E00401F29C417E
:1053200008F09AFB02B080BD80B584B0029002986C
:1053300000680190FFE7029890F89404012804D1D6
:10534000FFE702208DF80F0028E00299012081F884
:105350009404FFE7FFE70198C068400600280BD5DA
:10536000FFE70298407B012806D1FFE70199886B8F
:1053700040F480308863FFE70298006809F0A8FFD6
:105380000298006809F0A2FAFFE70299002081F86C
:105390009404FFE700208DF80F00FFE79DF80F0051
:1053A00004B080BD80B584B002900298006801907E
:1053B000FFE7029890F89404012804D1FFE7022047
:1053C0008DF80F002DE00299012081F89404FFE789
:1053D000FFE70298006809F0F3FB0298006809F003
:1053E0008BFA02980068102109F0B6FF0198C06896
:1053F000400600280BD5FFE70298407B012806D124
:10540000FFE70199886B20F480308863FFE7FFE7AE
:105410000299002081F89404FFE700208DF80F0026
:10542000FFE79DF80F0004B080BD000080B582B09A
:1054300001900198D0F8E00408F0AAFB01980168F7
:10544000D1F8000E40F00100C1F8000E0198C07ABA
:1054500048B1FFE74EF61051CEF20001086840F067
:1054600006000860FFE702B080BD000080B586B08E
:1054700004900020039002900498006800F001005E
:10548000012806D0FFE704980078400700284ED591
:10549000FFE76821C4F2472100200860FEF7B0F85A
:1054A0000390FFE743F60000C4F20200006800F03A
:1054B00000610020B0EBD16F0CD0FFE7FEF7A0F841
:1054C0000399401A032804D3FFE703208DF817003F
:1054D000E4E0E7E7049948688968800140EA0170E0
:1054E00043F68401C4F2020108606821C4F2472136
:1054F00001200860FEF784F80390FFE743F6000000
:10550000C4F20200006800F000610020B0EBD16F2F
:105510000CD1FFE7FEF774F80399401A032804D36F
:10552000FFE703208DF81700B8E0E7E7FFE70498EE
:1055300000788007002840F1AD80FFE7FFE70020FA
:10554000019043F64000C4F20200016841F080512E
:105550000160006800F0805001900198FFE747F279
:105560000001C4F20001086840F480700860FEF792
:1055700047F80390FFE747F20000C4F2000000681C
:10558000C00500280CD4FFE7FEF73AF80399401A4B
:10559000032804D3FFE703208DF817007EE0EAE735
:1055A00043F67000C4F20200006800F440700290FC
:1055B000029800283ED0FFE702980499C96801F4D8
:1055C0004071884236D0FFE743F67000C4F2020013
:1055D000016821F44071029140F64062C4F2472212
:1055E0000121116000211160029901600068C0076B
:1055F000F8B1FFE7FEF704F80390FFE743F6700009
:10560000C4F20200006800F002010020B0EB510F6C
:105610000ED1FFE7FDF7F4FF0399401A41F28931FB
:10562000884204D3FFE703208DF8170036E0E5E752
:10563000FFE7FFE7FFE70498C06800F44070B0F5AB
:10564000407F11D1FFE743F60801C4F20201086868
:1056500020F4F810049AD2684FF6FF43C0F6FF73A7
:105660001A401043086008E043F60801C4F2020142
:10567000086820F4F8100860FFE70498C2686FF328
:105680001F3243F67001C4F202010868104308603B
:10569000FFE7FFE700208DF81700FFE79DF81700F0
:1056A00006B080BD80B584B002900191029820B907
:1056B000FFE701208DF80F0021E1019843F600413A
:1056C000C4F20201096801F00701884212D9FFE71C
:1056D000019943F60040C4F202000170006800F036
:1056E00007000199884204D0FFE701208DF80F00E0
:1056F00005E1FFE702980078800700282AD5FFE738
:10570000029800784007002809D5FFE743F6080112
:10571000C4F20201086840F4E0500860FFE7029814
:1057200000780007002809D5FFE743F60801C4F216
:105730000201086840F460400860FFE743F6080192
:10574000C4F20201086820F0F000029A9268104347
:105750000860FFE702980078C00700286ED0FFE7D6
:1057600002984068012811D1FFE743F60000C4F217
:105770000200006800F400310020B0EB514F04D16A
:10578000FFE701208DF80F00B9E02CE00298406897
:10579000022805D0FFE702984068032811D1FFE7EF
:1057A00043F60000C4F20200006800F0007100201F
:1057B000B0EB516F04D1FFE701208DF80F009EE0A0
:1057C00010E043F60000C4F20200006800F002019D
:1057D0000020B0EB510F04D1FFE701208DF80F003E
:1057E0008DE0FFE7FFE743F60801C4F20201086815
:1057F00020F00300029A526810430860FDF700FF92
:105800000090FFE743F60800C4F20200006800F0D1
:105810000C0002994968B0EB810F0ED0FFE7FDF74D
:10582000EFFE0099401A41F28931884204D3FFE724
:1058300003208DF80F0062E0E4E7FFE7019843F6EC
:105840000041C4F20201096801F00701884212D246
:10585000FFE7019943F60040C4F2020001700068BE
:1058600000F007000199884204D0FFE701208DF87D
:105870000F0044E0FFE702980078400700280CD5AD
:10588000FFE743F60801C4F20201086820F4E05083
:10589000029AD26810430860FFE702980078000778
:1058A00000280DD5FFE743F60801C4F2020108689D
:1058B00020F46040029A126940EAC2000860FFE7E3
:1058C00000F04CF943F60801C4F202010968C9B2BC
:1058D0000A094BF2EC21C0F60201895CC84040F293
:1058E0002401C2F20001086040F20410C2F200007C
:1058F0000068FEF771FB00208DF80F00FFE79DF8B0
:105900000F0004B080BD000080B584B0FDF778FEC4
:10591000029043F60001C4F20201086840F0010061
:105920000860FFE743F60000C4F202000068800749
:1059300000280CD4FFE7FDF763FE0299401A032804
:1059400004D3FFE703208DF80F00D9E0EAE743F620
:105950000001C4F20201086840F080000860FDF711
:105960004FFE029043F60801C4F2020100200860D5
:10597000FFE743F60800C4F20200006810F00C0FC5
:105980000ED0FFE7FDF73CFE0299401A41F2893143
:10599000884204D3FFE703208DF80F00B0E0E8E76A
:1059A000FDF72EFE029043F60001C4F202010868E2
:1059B00020F450200860FFE743F60000C4F2020024
:1059C0000068800300280CD5FFE7FDF719FE029957
:1059D000401A652804D3FFE703208DF80F008FE0FD
:1059E000EAE7FDF70DFE029043F60001C4F2020162
:1059F000086820F080700860FFE743F60000C4F2FA
:105A000002000068800100280CD5FFE7FDF7F8FDD3
:105A10000299401A032804D3FFE703208DF80F00F2
:105A20006EE0EAE7FDF7ECFD029043F60001C4F2F8
:105A30000201086820F080600860FFE743F600007C
:105A4000C4F202000068000100280CD5FFE7FDF752
:105A5000D7FD0299401A032804D3FFE703208DF8ED
:105A60000F004DE0EAE743F60401C4F2020143F2FD
:105A70001000C0F20040086043F68401C4F2020145
:105A800043F20000C2F20000086043F60C01C4F2C9
:105A900002010191086820F4F8500860086820F4B9
:105AA00000500860086840F41F000860086840F46F
:105AB0000010086043F67401C4F20201086820F087
:105AC00001000860086840F08070086040F224011E
:105AD000C2F2000142F20040C0F2F400086040F25D
