:020000040800F2
:10000000F8060020290200083F110008A910000886
:100010003D1100081F040008DD1900080000000061
:100020000000000000000000000000002D19000882
:100030002104000800000000411100082F190008E9
:10004000430200084302000843020008430200087C
:10005000430200084302000843020008430200086C
:10006000430200084302000843020008430200085C
:10007000430200084302000843020008430200084C
:10008000430200084302000843020008430200083C
:10009000430200084302000843020008430200082C
:1000A000430200084302000843020008430200081C
:1000B000430200084302000843020008430200080C
:1000C00043020008430200084302000843020008FC
:1000D00043020008430200084302000843020008EC
:1000E00043020008430200084302000843020008DC
:1000F00043020008430200084302000843020008CC
:1001000043020008430200084302000843020008BB
:1001100043020008430200084302000843020008AB
:10012000430200084302000843020008430200089B
:10013000430200084302000843020008430200088B
:10014000430200084302000843020008430200087B
:10015000430200084302000843020008430200086B
:10016000430200084302000843020008430200085B
:100170004302000843020008430200080000000098
:10018000430200084302000800F002F800F03CF8C7
:100190000AA090E8000C82448344AAF10107DA45E2
:1001A00001D100F031F8AFF2090EBAE80F0013F0F8
:1001B000010F18BFFB1A43F0010318477418000021
:1001C00094180000103A24BF78C878C1FAD85207B2
:1001D00024BF30C830C144BF04680C6070470000C1
:1001E0000023002400250026103A28BF78C1FBD840
:1001F000520728BF30C148BF0B6070471FB501F0E0
:1002000009FC1FBD10B510BD00F0CFF81146FFF777
:10021000F5FF01F0F4FB00F0EDF803B4FFF7F2FF97
:1002200003BC00F0F5F80000094880470948004782
:10023000FEE7FEE7FEE7FEE7FEE7FEE7FEE7FEE796
:10024000FEE7FEE704480549054A064B70470000F3
:10025000CD19000889010008F8000020F8060020E8
:10026000F8020020F802002053EA020C00F0698036
:100270002DE9F04B4FF00006002B1FBFB3FA83F5BA
:1002800003FA05F424FA05F65E4012BF1643B2FAEB
:1002900082F502FA05F4C5F120051EBF22FA05FC1D
:1002A00044EA0C04203556EA044C4FEA144418BFC3
:1002B000641C4FF000084FF00009904271EB030CF2
:1002C00039D3002919BFB1FA81F701FA07F6B0FA5C
:1002D00080F700FA07F6C7F120071EBF20FA07FCD7
:1002E00046EA0C062037B6FBF4FCA7EB0507103FE7
:1002F00007F01F0BCBF120060CFA0BFB2CFA06F6CD
:1003000044BFB3460026202FA4BF5E464FF0000B2B
:100310005BEA060C08BF4FF0010B19EB0B09ABFBB6
:10032000027C48EB0608C01B06FB02CC0BFB03CC8F
:1003300071EB0C01C1E70B46024641464846BDE859
:10034000F08B13B54FF000004FF00001AFF30080C9
:10035000BDE81C4070474FF0000200B513469446BC
:100360009646203922BFA0E80C50A0E80C50B1F10D
:100370002001BFF4F7AF090728BFA0E80C5048BF21
:100380000CC05DF804EB890028BF40F8042B08BFBF
:10039000704748BF20F8022B11F0804F18BF00F8BB
:1003A000012B7047704770477047754600F02CF876
:1003B000AE4605006946534620F00700854618B052
:1003C00020B5FFF73FFFBDE820404FF000064FF09B
:1003D00000074FF000084FF0000B21F00701AC467A
:1003E000ACE8C009ACE8C009ACE8C009ACE8C00999
:1003F0008D46704710B50446AFF300802046BDE837
:100400001040FFF70ABF000000487047940000202A
:1004100001491820ABBEFEE7260002007047FEE748
:10042000704772B6FEE7000070B5044600F006F9AA
:100430000546601C02D004480078044400F0FEF831
:10044000401BA042FAD370BD000000202DE9F84FF8
:10045000DFF8BCA10022012503264FF00F090AF1A5
:10046000040BAAF1040E00BF0B6805FA02F4234046
:10047000A34270D10F7907F00307012F01D0022F9B
:1004800016D187684FEA420806FA08FC27EA0C07EB
:10049000D1F80CC00CFA08FC4CEA070CC0F808C0F4
:1004A0004768A7430C79C4F3001494403C4344606C
:1004B0000C79E443A4070AD0C4684FEA420C06FA58
:1004C0000CF7BC438F6807FA0CF72743C7600C7919
:1004D00004F00304022C12D1D40800EB840CDCF8E5
:1004E00020405707FF0E09FA07F824EA0804D1F85C
:1004F000108008FA07F848EA0408CCF8208004685D
:100500004FEA420C06FA0CF7BC430F7907F00307D9
:1005100007FA0CF7274307604C6814F4403F70D08B
:100520003C4C276847F480472760246822F0030783
:1005300004F480440094384C07EB040CDCF80848C1
:1005400097074FEA177809FA08F7BC43334FB842C8
:1005500002D1002724E054E0314FB84201D10127F5
:100560001EE0304FB84201D1022719E02E4FB842A9
:1005700001D1032714E02D4FB84201D104270FE029
:100580002B4FB84201D105270AE02A4FB84201D1CA
:10059000062705E0284FB84201D1072700E00827C9
:1005A00007FA08F72743CCF80878DAF800405746EE
:1005B000D1F804C09C435FEACC2C00D51C433C60BE
:1005C000DBF800405F46D1F804C09C435FEA8C2C06
:1005D00000D51C433C60DEF800407746D1F804C0EB
:1005E0009C435FEA8C3C00D51C433C60084F083FAD
:1005F0003C68D1F804C09C435FEACC3C00D51C4366
:100600003C60521C102AFFF42FAFBDE8F88F0000A9
:10061000083C0140443802400030014000000240E4
:100620000004024000080240000C0240001002409A
:100630000014024000180240001C0240014880687B
:1006400070470000000000200248816802781144D1
:1006500081607047000000200B4810B5016841F42C
:1006600000710160016841F480610160016841F43A
:1006700080710160032000F061F80F2000F006F89F
:1006800000F024F8002010BD003C024070B50D4D74
:1006900004464FF47A712878B1FBF0F00A490968F2
:1006A000B1FBF0F000F0ECFC48B9102C07D20022AE
:1006B0002146501E00F022F800206C6070BD012021
:1006C00070BD0000000000200C0000200A4808B5A2
:1006D000016841F480410160006800F480400090AE
:1006E0000548001F016841F080510160006800F07A
:1006F0008050009008BD000044380240F0B40E4B1A
:100700001B680C46C3F30223C3F10705042D00D96F
:100710000425191D072901D2002300E0DB1E012654
:1007200006FA05F1491E214099409E40761E16406A
:100730003143F0BC01F053B90CED00E0064900F084
:10074000070208684FF6FF03184040EA0220034AF8
:1007500010430860704700000CED00E00000FA054F
:100760002DE9F0470E46050065D0DFF81481D8F872
:100770000000F7B200F00700B04207D288F800701E
:10078000D8F8000000F00700B04254D128683D4C72
:10079000810712D5400703D5206840F4E05020605F
:1007A0002878000703D5206840F460402060206866
:1007B000A96820F0F000084320602878C0072DD0F9
:1007C000304968680839012812D0022813D003285C
:1007D00011D00968890700292DDA216821F0030169
:1007E00001432160FFF72AFF814641F2883A0EE07B
:1007F00009688903EFE709688901ECE7FFF71EFF45
:10080000A0EB0901514502D90320BDE8F08720681B
:10081000696800F00C00B0EB810FEFD1D8F8001040
:10082000404601F00701B14207D90770006800F0A7
:100830000700B04201D00120E7E72878400705D53E
:100840002068E96820F4E050084320602878000719
:1008500006D52068296920F4604040EAC100206084
:1008600000F018F82168084AC1F30311515CC84030
:100870000649086006480068FFF708FF0020C4E743
:10088000003C0240083802401E1A00080C000020FC
:1008900004000020154810B5006810F00C02144840
:1008A00013D01449042A0FD0082A0ED10F4C241F4C
:1008B0002268236802F03F025B0207D52068C0F37C
:1008C0008810A0FB010106E0084610BD2168C1F3B5
:1008D0008811A1FB00010023FFF7C6FC2168C1F3CA
:1008E0000141491C4900B0FBF1F010BD083802403D
:1008F0000024F40040787D012DE9F84F04006ED00B
:100900002078DFF84C93C007A9F104054AD009F11B
:1009100004000168C1F38101012908D00068C0F317
:10092000810002280AD1D9F80000400206D52868C3
:10093000800337D560680028E1D033E06068B0F507
:10094000803F10D0B0F5A02F286810D020F4803060
:100950002860286820F4802028606068A8B1FFF72C
:100960006DFE06460DE0286840F48030F4E740F460
:1009700080202860F7E700BFFFF760FE801B642837
:1009800073D828688003F7D50CE0FFF757FE0646BA
:1009900005E000BFFFF752FE801B6428F0D82868EE
:1009A0008003F7D42078DFF8AC8280074FF0000A8C
:1009B0003ED5A748001D016811F00C0F08D0006853
:1009C000C0F3810002280BD1D9F80000400207D4FF
:1009D0002868800716D5E068012800D112E033E1CD
:1009E000E068B8B10120C8F80000FFF727FE06460E
:1009F00005E000BFFFF722FE801B0228C0D8286850
:100A00008007F7D52868216920F0F80040EAC10086
:100A100028600DE0C8F800A0FFF710FE064604E0CD
:100A2000FFF70CFE801B02281FD828688007F7D428
:100A30002078000722D5864F87486169703771B1E9
:100A400001210160FFF7FAFD064604E0FFF7F6FD1D
:100A5000801B022809D838688007F7D50EE0C0F857
:100A600000A0FFF7EBFD064605E082E0FFF7E6FD9C
:100A7000801B02287DD838688007F7D4207840078B
:100A800068D5DFF8CCB100270BF13C0BDBF8000098
:100A9000C0000BD4DBF8001041F08051CBF80010FF
:100AA000DBF80000012700F0805000906B4E3068AA
:100AB000C00510D4306840F480703060FFF7BEFD90
:100AC000009005E0FFF7BAFD0099401A022850D8BF
:100AD0003068C005F6D55E4EA0686C3601280FD090
:100AE0000528306810D020F001003060306820F018
:100AF00004003060A068B8B1FFF7A0FD00900FE0DF
:100B0000306840F00100F4E740F004003060F7E79F
:100B1000FFF794FD0099411A41F28830814266D86E
:100B200030688007F4D50EE0FFF788FD009007E0FD
:100B3000FFF784FD0099411A41F28830814256D86E
:100B400030688007F4D42FB1DBF8001021F0805119
:100B5000CBF80010A069C8B33D49091D0968C1F36D
:100B6000810102294AD00228504607D0C8F8600007
:100B700000E03CE0FFF762FD04463BE04746C8F872
:100B80006000FFF75BFD064605E000BFFFF756FD7E
:100B9000801B02282BD828688001F7D4D4E90701EC
:100BA0000843A16A2E4A490802EB0141626A41EA00
:100BB0008211084394F82C1040EA0161C9F8001032
:100BC00001203866FFF73AFD044606E03EE000BF2C
:100BD000FFF734FD001B022809D828688001F7D5EB
:100BE00034E000BFFFF72AFD001B022802D90320D2
:100BF000BDE8F88F28688001F4D427E00128F7D0F9
:100C0000D9F80000E26900F4800191421CD1226A07
:100C100000F03F01914217D147F6C071626A01406E
:100C2000B1EB821F10D1A26A4FF0FF3300F44031C4
:100C300003EB5202B1EB024F06D194F82C1000F0F6
:100C40007060B0EB016F01D00120D1E70020CFE749
:100C50000438024000004742800E474200700040C6
:100C60000000FFFF2DE9FE430446002603200D4649
:100C700084F83400606C03285ED0B5F5805F5BD0EB
:100C80004FF4006700204FF08068BD421FD18146BD
:100C9000009001900021206800F074FA800113D4C4
:100CA0006946204600F000FD07000DD10198400381
:100CB00034D5B4F850000104206800F08FFA070022
:100CC00002D10221206823E0A06B384328E01DB147
:100CD000A06B40F0006023E081460090019000216D
:100CE000206800F04FFA8001EED46946204600F0FB
:100CF000DBFC0700E8D10198C0030FD5B4F8500021
:100D00000104206800F06AFA0700DDD100212068A4
:100D100000F0B1FA0700D7D14F46D5E74746D3E7F1
:100D2000A063A06B144F4FF0010848B1206887639F
:100D300084F8348001260EE0A06B40F08050EFE78D
:100D4000211DD4E9050C0EC9CDE90050CDF808C02D
:100D5000206800F01AFA4FF40071206800F072FA6F
:100D600028B121688F63A16B0143A163012684F838
:100D700034803046BDE8FE83FF054000F0B5426E8A
:100D8000920F0A70426EC2F383624A70426EC2F3DF
:100D900001628A70426E120CCA70B0F86420120AA6
:100DA0000A7190F864204A71826E120DCA80826EB8
:100DB000C2F303420A72B0F86820C2F3C0324A722A
:100DC000B0F86820C2F380328A72B0F86820C2F3AB
:100DD0004032CA72B0F86820C2F300320A730026AB
:100DE0004E73426C4FF40075012462B1012A3AD06F
:100DF000026847499163816B41F08051816380F8BB
:100E000034400120F0BDB0F86820C36E9205120D89
:100E100042EA93720A61C26EC2F3C2620A75C26E7E
:100E2000C2F302624A75C26EC2F342528A75C26E42
:100E3000C2F38242CA75C26EC2F3C2320A760A692E
:100E4000521C42650B7E03F007039B1C9A404265CF
:100E50000B7A03F00F0704FA07F383655B0A5A4322
:100E6000C0E917250EE090F86820C36E9206920A3A
:100E700042EA13420A610A69521C92024265C0E9C1
:100E80001652056630F86C2FC2F3803201F8192F24
:100E90000288C2F3C6124A70027802F07F028A709A
:100EA0004268D20FCA704268C2F341720A71426846
:100EB000C2F382624A714268C2F383528A71426805
:100EC000C2F34052CA710E724268C2F300424A72C3
:100ED0008288C2F3C0328A728288C2F38032CA72B8
:100EE0008288C2F340320A738288C2F300324A73A6
:100EF0008288C2F381228A738288C2F30122CA7374
:100F00000079C0F3460008744C740020F0BD000066
:100F1000FF054000426C0A60826C4A60C26C8A60C5
:100F2000026DCA60426D0A61826D4A61C26D8A615A
:100F3000006EC8610020704770B504000ED094F8B0
:100F40003400002518B92577204600F04FF803201B
:100F500084F83400204600F00BF808B1012070BD81
:100F6000A5632563012084F83400002070BD0000D3
:100F7000FEB50025044676200095CDE901502946AE
:100F80000B460A46206800F000F948BB154E46F8AB
:100F9000A05F206800F00BF9012535600220FFF703
:100FA00043FA204600F068FC30B100BF84F83450AA
:100FB000A16B0143A16313E0204600F0E5FB00288C
:100FC000F4D14FF40071206800F03CF9002808D0FB
:100FD000226805499163A16B0143A16384F83450F1
:100FE0000120FEBD00802542FF054000F0B587B01E
:100FF000044614216846FFF7AEF91D49206888426F
:1010000033D11C480024016841F40061016000688C
:1010100000F40060059017481438016841F004019D
:101020000160016801F004010591016841F00801C7
:1010300001600068022500F0080005904FF4F850A8
:10104000CDE9000502AA03260C2782E8D0006946F4
:101050000948FFF7FBF90420CDE9000502AA69461B
:1010600082E8D0000548FFF7F1F907B0F0BD0000B5
:10107000002C01404438024000080240000C0240AD
:1010800010B5401EB0F1807F01D3012010BD4FF09C
:10109000E02460610F21601700F0A1FC0020A06136
:1010A00007202061002010BDFEE70000114808B5B0
:1010B000016841F004010160016801F00401009140
:1010C000016841F080010160016801F08001009138
:1010D000016841F001010160016801F00101009126
:1010E000016841F008010160006800F0080000900C
:1010F00008BD0000303802400F4810B50D490160AE
:10110000002141608160C160016141610421816110
:10111000FFF712FF08B1FFF784F94FF400610648AA
:10112000FFF7A0FD002803D0BDE81040FFF779B914
:1011300010BD0000002C014010000020FEE7FEE77B
:101140007047000000B589B069460248FFF7E2FE2B
:1011500009B000BD100000200A6842624A6882623D
:10116000D1E902231A43D1E904310B43C16A1A437E
:1011700021F0F7011143C16200207047006800F0C0
:101180000300704708444069704770B50DF1100CBA
:1011900011439CE8700023431943294342683143BB
:1011A00047F6FF639A430A434260002070BD032163
:1011B000016000207047D0F8800070470A688260A4
:1011C000D1E901231A43D1E903310B43C1681A4322
:1011D0006FF30B011143C1600020704710B585B05B
:1011E00004463720CDE900104020029000200390F3
:1011F0004FF48060049069462046FFF7DFFF41F21C
:1012000088323721204600F005F905B010BD0000F6
:1012100010B504460A4885B001432920CDE90010E5
:1012200040200290002003904FF4806004906946B3
:101230002046FFF7C3FF204600F0A4F905B010BD1B
:101240000000108010B585B004461020CDE90010D4
:1012500040200290002003904FF480600490694683
:101260002046FFF7ABFF41F288321021204600F004
:10127000D1F805B010BD10B585B004460620CDE903
:10128000001040200290002003904FF480600490F2
:1012900069462046FFF792FF41F288320621204638
:1012A00000F0B8F805B010BD30B585B00024054693
:1012B000009401944FF480600294CDE903406946A4
:1012C0002846FFF77BFF0B484FF4FA510068B0FB4C
:1012D000F1F041F288314843401E03D24FF0004004
:1012E00005B030BD696B0906F6D5C520A863204658
:1012F000F6E700000C00002010B585B004464FF45E
:10130000D5700090082001904020029000200390AA
:101310004FF48060049069462046FFF74FFF204657
:1013200000F096F905B010BD10B585B00446072051
:10133000CDE9002040200290002003904FF480600F
:10134000049069462046FFF739FF41F288320721B1
:10135000204600F05FF805B010BD10B585B004461A
:1013600000210220CDE90010C020CDE902014FF498
:101370008060049069462046FFF720FF204600F079
:10138000D9F805B010BD10B585B004460920CDE9E7
:101390000010C0200290002003904FF48060049061
:1013A00069462046FFF70AFF204600F0C3F805B063
:1013B00010BD10B585B0044600213320CDE90010E2
:1013C0004020CDE902010001049069462046FFF764
:1013D000F5FE41F288323321204600F01BF805B0BB
:1013E00010BD30B585B00C46054600210320CDE97F
:1013F00000104020CDE90201000104906946284612
:10140000FFF7DCFE22460321284600F0DDF805B098
:1014100030BD0000454B10B51B684FF4FA54B3FBC8
:10142000F4F353435B1E02D24FF0004010BD426BF9
:1014300012F0450FF6D01205F4D4426B520703D5D3
:1014400004218163084610BD426BD20702D00121FE
:10145000816305E0C52282630269D2B28A4201D06B
:10146000012010BD0021FFF78DFE3149084201D156
:10147000002010BD002802DA4FF0007010BD4100BE
:1014800001D5402010BD810001D5802010BDC100D4
:1014900002D54FF4807010BD010102D54FF40070E9
:1014A00010BD410102D54FF4806010BDC10102D5CD
:1014B0004FF4006010BD010202D54FF4805010BD02
:1014C000410202D54FF4005010BD810202D54FF405
:1014D000804010BDC10202D54FF4004010BD410351
:1014E00002D54FF4003010BD810302D54FF48020A7
:1014F00010BDC10302D54FF4002010BD010402D578
:101500004FF4801010BD410402D54FF4001010BDFF
:10151000810402D54FF4800010BD000702D54FF4BE
:10152000000010BD4FF4803010BD00000C00002002
:1015300008E0FFFD12494FF4FA520968B1FBF2F1DD
:1015400041F288325143491E02D24FF000407047A9
:10155000426B12F0450FF6D01205F4D4416B4907E7
:1015600003D50421816308467047416BC90703D046
:101570000121816308467047C521816300207047BF
:101580000C0000200F494FF4FA520968B1FBF2F148
:1015900041F288325143491E02D24FF00040704759
:1015A000426B12F0450FF6D01205F4D4416B490797
:1015B00003D50421816308467047C521816300205B
:1015C000704700000C00002030B5204B4FF4FA5457
:1015D0001B68B3FBF4F341F2883463435B1E02D211
:1015E0004FF0004030BD446B14F0450FF6D0240599
:1015F000F4D4436B5B0703D504218163084630BDF7
:10160000436BDB0702D00121816303E00369DBB296
:101610008B4201D0012030BDC52181630021FFF73D
:10162000B1FD10F4604F04D0410406D54FF40050D2
:1016300030BD000C1080002030BD000402D54FF4F6
:10164000805030BD4FF4803030BD00000C000020D1
:1016500014494FF4FA520968B1FBF2F141F28832B1
:101660005143491E02D24FF000407047426B12F0C6
:10167000450FF6D01205F4D4416B490703D5042178
:10168000816308467047416BC90703D0012181631C
:1016900008467047416B490601D54021816300200F
:1016A000704700000C0000202DE9F04788B00D467F
:1016B0000446FEF7C3FF0026824600960196374691
:1016C00008212068FFF7BEFD00282CD1B4F8500097
:1016D00001042068FFF782FD002824D1401E4FF04E
:1016E0000808CDE9020830204FF00209CDE90409CD
:1016F0000120CDE9067002A92068FFF72DFD2068C2
:10170000FFF757FE00280ED16F462068416B11F09D
:101710002A0F0BD0416B090702D4416B89051AD5FA
:10172000C0F83880082008B0BDE8F087416B890216
:1017300005D5FFF740FD47F82600761C02E0416B17
:101740008904E7D5FEF77AFFA0EB0A00401CDCD144
:101750004FF00040E7E7416B890703D5C0F83890A8
:101760000220E0E7416B890603D52021816308460A
:10177000D9E740F23A518163019800BA2860009895
:1017800000BA68600020CEE710B590B00446012092
:10179000ADF838002068FFF7F1FC002854D0606CE9
:1017A000032842D02068FFF7D8FD00284AD1002145
:1017B0002068FFF7E7FC606704212068FFF7E2FC80
:1017C000A06708212068FFF7DDFCE0670C21206896
:1017D000FFF7D8FCC4F88000606C032825D00EA960
:1017E0002068FFF7FEFD00282CD1606C03281CD078
:1017F000BDF83800206501042068FFF7C4FD00280B
:1018000020D100212068FFF7BDFC6066042120681C
:10181000FFF7B8FCA06608212068FFF7B3FCE0667C
:101820000C212068FFF7AEFC206704212068FFF739
:10183000A9FC000DE06403A92046FFF79FFA30B130
:101840004FF0805010B010BD4FF08060FAE7B4F850
:101850005000002302042068FFF766FD0028F1D144
:1018600004F1100007C88DE8070094E80F00FFF7A7
:101870008CFC0020E6E700002DE9F84F0026044626
:1018800000963546B0460068FFF70EFD002827D1C8
:101890002068FFF731FD4FF0805B4FF001094FF6F4
:1018A000FF7748B1A6642068FFF7FEFC002817D137
:1018B000A06C012802D020E0C4F8489000212068E4
:1018C000FFF78CFC58B918E000212068FFF786FC70
:1018D000002805D151462068FFF79AFC10B1584600
:1018E000BDE8F88F00212068FFF74CFC05464FEA61
:1018F000D0780098401C009002E0DFF82CA00098FF
:10190000B84202D2B8F1000FDED00098B84202D33C
:101910004FF08070E4E7680002D5C4F8449000E01E
:1019200066640020DCE70000000010C17047FEF78D
:101930008BBE000030B593B030216846FEF70BFD3A
:1019400014210CA8FEF707FD1E480025016841F090
:1019500080510160006800F0805011901A480168C1
:1019600041F4804101600068022400F4804011903D
:1019700001200090000401908001CDE9064019206B
:1019800008904FF4A870CDE9090407200B90684631
:10199000FEF7B2FF08B172B6FEE70CA90F2081E88E
:1019A00031004FF4A0500F904FF48050109005215B
:1019B0000CA8FEF7D5FE002801D072B6FEE713B0E2
:1019C00030BD00004038024000700040024801680D
:1019D00041F470010160704788ED00E0FEE70907FF
:1019E000090E002804DB00F1E02080F800147047A5
:1019F00000F00F0000F1E02080F8141D7047FEF7A2
:101A00002BFEFFF797FFFFF751FBFFF775FBFFF783
:101A100099FBFEE74FF04070E1EE100A70470000BE
:101A2000000000000000010203040607080900008E
:101A3000501A00080000002010000000C401000837
:101A4000601A000810000020E8060000E00100080D
:101A50000100000010000000000000000024F4005D
:040000050800018965
:00000001FF
